:020000040800F2
:10000000B8050020ED0100084D1C0008D5080008C7
:10001000491C00088F07000809250008000000009F
:10002000000000000000000000000000F1210008B6
:1000300065080008000000008F1C0008F52100087A
:10004000070200080702000807020008070200086C
:10005000070200080702000807020008070200085C
:10006000070200080702000807020008070200084C
:10007000070200080702000807020008070200083C
:10008000070200080000000007020008070200083D
:10009000070200080702000807020008070200081C
:1000A000070200080702000807020008070200080C
:1000B00059240008B12400080702000807020008BC
:1000C00007020008070200080702000807020008EC
:1000D00007020008070200080702000807020008DC
:1000E00007020008070200080702000807020008CC
:1000F00007020008070200080702000800000000CD
:1001000000000000070200080000000007020008CD
:1001100007020008000000000702000807020008AC
:10012000070200080702000807020008070200088B
:10013000070200080000000000000000070200089D
:10014000070200080702000800000000000000008D
:10015000000000000000000000000000000000009F
:10016000000000000000000000000000070200087E
:10017000070200080000000000000000000000006E
:10018000000000000702000800000000000000005E
:10019000000000000000000000000000000000005F
:1001A000000000000000000007020008070200082D
:1001B000070200080702000807020008000000000C
:1001C000000000000702000800000000000000001E
:1001D0000702000807020008DFF80CD000F094FACC
:1001E0000048004785360008B805002006488047CB
:1001F00006480047FEE7FEE7FEE7FEE7FEE7FEE70C
:10020000FEE7FEE7FEE7FEE73D240008D90100080F
:10021000D2B201E000F8012B491EFBD27047002248
:10022000F6E710B513460A4604461946FFF7F0FFF5
:10023000204610BD2DE9FE4F81EA030404F000447E
:1002400021F0004100944FF0000B23F0004350EAEE
:1002500001045ED052EA03045BD0C3F30A54C1F335
:100260000A552C44A4F2F3340194A0FB0254C1F3C8
:10027000130141F48011C3F3130343F4801301FB12
:10028000024400FB034E840A970A44EA815447EA79
:100290008357A4FB076802958D0A05FB07854FEA83
:1002A000932C04FB0C542705029D4FEA065847EA9D
:1002B0001637B5EB08056EEB070C870E920E47EA72
:1002C000811742EA8312A7FB0201B6EB0B0164EB34
:1002D00000042B0D43EA0C335E1844EB1C50DA4645
:1002E0005146E7FB0201C5F313044FEA0B3343EA1F
:1002F00014534FEA0432019C43EA0603A4F10C04B0
:100300000294009CCDE900B400F0D8F803B0BDE839
:10031000F08F00200146F9E72DE9F04D81EA030452
:1003200004F0004B21F0004514464FF0000A23F082
:10033000004150EA050220D054EA01021DD0C5F365
:100340000A570246C5F31303C1F31300C1F30A565B
:1003500040F4801543F48013A7EB0608101BD64623
:1003600008F2FD3873EB050002D308F1010801E043
:1003700092185B41B8F1000F03DA00200146BDE896
:10038000F08D00204FF48011064684460EE0171BC6
:1003900073EB050705D3121B63EB050306434CEA19
:1003A000010C49084FEA300092185B4150EA0107FE
:1003B000EDD152EA030012D082EA040083EA05017B
:1003C000084305D0101BAB4106D20122002306E0F2
:1003D00000224FF0004302E06FF0010253101AEBCD
:1003E00006004CEB085110EB0A0041EB0B01BDE895
:1003F000F04D00F054B80EB540F2334102910021A7
:10040000CDE900110A460B4600F058F803B000BDD4
:1004100030B50B46014600202022012409E021FAD4
:1004200002F59D4205D303FA02F5491B04FA02F5D1
:100430002844151EA2F10102F1DC30BD2DE9F05F68
:100440000546002092469B46884606468146402443
:100450001BE0284641464746224600F076F95346BF
:100460005A46C01A914110D311461846224600F050
:100470005DF92D1A67EB01084F4622460120002145
:1004800000F054F917EB00094E41201EA4F10104BD
:10049000DFDC484631462A464346BDE8F09F10B5AA
:1004A000141E73F1000408DA401C41F10001921897
:1004B0005B411A4301D120F0010010BD2DE9F04D40
:1004C00092469B4611B1B1FA81F202E0B0FA80F295
:1004D0002032904600F02AF904460F4640EA0A000E
:1004E00041EA0B0153465A46084313D0114653EADA
:1004F000010019D0C8F14002504600F026F9054627
:100500000E4650465946424600F010F9084305D0C1
:10051000012004E020463946BDE8F08D0020054367
:1005200046EAE0762C4337430A986305E40AA0EBD9
:1005300008000022FD0A44EA47540A3002D5002090
:100540000146E9E7010510196941DDE9084500198F
:100550006941BDE8F04DA2E72DE9FE4F804681EAF2
:100560000300C00F0C46009021F0004123F000452D
:10057000B8EB0200A94105D24046214690461C46F0
:100580000B46024623F00040104347D0270DC7F327
:100590000A00C3F30A510290401A019040286BDA16
:1005A000C3F3130040F4801B0098924620B100234F
:1005B000D2EB030A63EB0B0B01985946C0F14002E2
:1005C000504600F0B3F806460D4650465946019A8B
:1005D00000F0CBF810EB08006141002487EA1152CB
:1005E00084EAE7731A4340D0009A62B3019A012A61
:1005F0004FEA075215DC001B61EB02014FF000428D
:1006000002EA0752CDE90042001C41F58011324652
:100610002B46FFF753FF03B0BDE8F08F404621465D
:10062000F9E7001B61EB0201001C41F58013001883
:100630005B412018A2F5001747EB030140EAD57093
:10064000B6196D4111E06D084FEA360645EAC075EE
:100650004FEA0752001B61EB0201001C41F58011BB
:1006600049084FEA30000019514132462B4603B089
:10067000BDE8F04FFFF713BF0098012240000023B0
:10068000D0EB020263EBE073009821464FEAE0747E
:10069000B8EB000061EB0401E9E783F000435BE79E
:1006A00081F0004158E7C1F30A52C1F3130140F24F
:1006B000FF3341F480119A4202DA0020014670476C
:1006C00040F233439A42A2F2334202DC524200F03B
:1006D0003CB800F02BB8000030B5041E71F10004E6
:1006E00004DB4FF00044404264EB0101141E73F13F
:1006F000000405DB1C464FF00043524263EB040349
:10070000994208BF904230BD064C074D06E0E068B4
:1007100040F0010394E8070098471034AC42F6D348
:10072000FFF75EFD90530008B0530008202A04DB59
:10073000203A00FA02F1002070479140C2F12003F4
:1007400020FA03F3194390407047202A04DB203A33
:1007500021FA02F00021704721FA02F3D040C2F1E1
:1007600020029140084319467047202A06DBCB1728
:10077000203A41FA02F043EAE07306E041FA02F35C
:10078000D040C2F12002914008431946704700BF93
:10079000FEE7000000B58FB0202107A8FFF73FFD5E
:1007A000182101A8FFF73BFD4FF480402B49096E4B
:1007B00001432A4A11661146096E0140009100BFAB
:1007C00000BF01201146C96C0143D1641146C96CB8
:1007D0000140009100BF00BF400201900220029042
:1007E000002003900490012005900720069001A9A5
:1007F0004FF0904000F0D2FD4FF480600190002057
:1008000002900390012005900720069001A94FF067
:10081000904000F0C3FD002007904FF41650089060
:10082000002009900A900B9008200C9000200E9058
:1008300007A90B4801F058F900BF0948006840F0CB
:1008400001000749086000BF00BF00BF0448C0693D
:10085000C0F340500028F8D00FB000BD0010024097
:10086000003801407047002109E0002201E0531CDC
:100870009AB240F6B8339A42F9DB4B1C99B28142E6
:10088000F3DB704770B5054600244FF480501049E3
:10089000886200BF4B2001F091FC002001F08EFC2B
:1008A000002001F08BFC002001F088FC002001F00A
:1008B00085FC00BF04E001F069FC2855601CC4B24F
:1008C000082CF8DB4FF48051014800F01DFE70BD8C
:1008D0000004004800BFFEE770B50825002401F0C1
:1008E00013FC13E06006040E002001F0E9FB142065
:1008F00002F0B8FA142002F0B5FA012001F0E0FB92
:10090000142002F0AFFA01F0EFFB0443281EA5F11A
:100910000101CDB2E6D101F0D3FB142002F0A2FA1E
:1009200001F01CFC204670BD70B50446082517E098
:10093000002001F0C5FB142002F094FA04F08000BE
:1009400001F0F8FB142002F08DFA6006040E14206A
:1009500002F088FA012001F0B3FB142002F082FAC1
:10096000281EA5F10101CDB2E2D101F0A9FB1420AE
:1009700002F078FA70BD10B5012001F0DBFB142005
:1009800002F070FA142002F06DFA012001F098FBD9
:10099000142002F067FA002001F092FB142002F00C
:1009A00061FA10BD10B5012001F0C4FB142002F063
:1009B00059FA012001F084FB142002F053FA0020C0
:1009C00001F0B8FB142002F04DFA002001F078FB92
:1009D000142002F047FA10BD10B5002001F070FBA2
:1009E000142002F03FFA002001F0A4FB142002F0D2
:1009F00039FA012001F064FB142002F033FA0120DF
:100A000001F098FB142002F02DFA10BD10B505245A
:100A100001F07AFB142002F025FA012001F050FBCE
:100A2000142002F01FFA0BE0601E84B2142002F0C2
:100A300019FA2CB901F092FBFFF7CEFF012010BD8F
:100A400001F052FB0028EFD101F088FB002001F0FB
:100A500037FB142002F006FA0020F0E700B587B05B
:100A6000182101A8FFF7DBFB4FF6FF700190002073
:100A70000290032003900020059001A9024800F095
:100A80008DFC07B000BD00000008004800B587B02D
:100A9000182101A8FFF7C3FB4FF6FF70019001205A
:100AA00002900320039000200490059001A90248C1
:100AB00000F074FC07B000BD0008004830B50546E2
:100AC00000240021084600F027F900F075F900BF66
:100AD00003E0284600F034F9641CB4F5963FF8D3DF
:100AE00030BD000000B587B0182101A8FFF797FBC3
:100AF000012000F01BFC022000F018FC042000F094
:100B000015FC4FF4487001900120029000200390E2
:100B10000490059001A9124800F040FC4FF4807049
:100B2000019001200290002003900490059001A9FB
:100B30004FF0904000F032FCFFF7A8FF4FF09040DC
:100B4000806940F480704FF090418861044818300B
:100B5000006840F4087002491831086007B000BD11
:100B60000004004870B505460E461446A4F1200066
:100B7000C4B204EB4400044901EB0012314628469C
:100B800000F01AF870BD000010410008F0B50746EB
:100B90000C46002540F23F1609E0227831463846DF
:100BA000FFF7E0FFA6F1100086B2641C6D1C2078F0
:100BB00008B1142DF1D3F0BD2DE9F0430646894666
:100BC000174600240025A046B0464946404600F09E
:100BD000A3F800BF1EE000F0EFF800250FE037F8A3
:100BE00014000121A940084020B90C48008800F0F9
:100BF000A7F803E00A48008800F0A2F86D1C102D49
:100C0000EDD308F1010000F0FF084946404600F02E
:100C100083F8641C182CDED3BDE8F083E6000020C6
:100C2000E400002010B5FFF75DFF002000F016F88B
:100C3000094908800846008848F23021884202D1DC
:100C400001F0AEF801E001F03BF9002000F006F8F9
:100C50000149088010BD0000E800002070B504467E
:100C60002748006840F4007025490860084600687D
:100C700040F48070086022481038006840F020007E
:100C80001F49103908601F4804601D48006840F083
:100C900020001B49086000BF00BF00BF1848103883
:100CA000006840F0200016491039086008460068C6
:100CB00040F480700860FFF7D1FE4FF09040806AEA
:100CC00040F480704FF09041886200BF00BF00BFC9
:100CD0000C48001F006885B24FF09040806940F4D6
:100CE00080704FF090418861FFF7D0FE04481038C3
:100CF000006840F40070024910390860284670BD51
:100D0000280400481408004801B5BDF80000014956
:100D1000088008BDE600002030B504460D46214697
:100D2000202000F085F82946212000F081F830BD10
:100D300001B5BDF800000149088008BDE4000020AD
:100D40001B49096841F40071194A116018491039AA
:100D5000096841F48071164A103A11601146096819
:100D600041F020011160134908601149096841F000
:100D700020010F4A116000BF00BF00BF0C491039AD
:100D8000096841F020010A4A103A116011460968C9
:100D900041F48071116000BF00BF00BF04491039E9
:100DA000096841F40071024A103A1160704700006E
:100DB00028040048140800481B48006840F40070EC
:100DC000194908600846006840F4807008601648B9
:100DD0001038006840F020001349103908602220C4
:100DE000124908601048006840F020000E49086071
:100DF00000BF00BF00BF0C481038006840F0200062
:100E00000949103908600846006840F4807008609D
:100E100000BF00BF00BF04481038006840F40070F5
:100E20000149103908607047280400481408004838
:100E3000214A126842F400721F4B1A601A46126867
:100E400042F480721A601C4A103A126842F0200282
:100E5000194B103B1A60194A1060174A126842F089
:100E60002002154B1A6000BF00BF00BF124A103AA3
:100E7000126842F02002104B103B1A601A461268AA
:100E800042F480721A600D4A11600B4A126842F0F7
:100E90002002094B1A6000BF00BF00BF064A103A8B
:100EA000126842F02002044B103B1A601A46126886
:100EB00042F480721A607047280400481408004801
:100EC0002DE9F04105460C460026606800B100BFE0
:100ED0004FF0A04000F065F907460F4800F061F9B7
:100EE0000743AFB9606860B1D4E900010843A16865
:100EF0000843E1680843A968084A11400843A8600C
:100F000007E0A8680549084021680843A86000E098
:100F100001263046BDE8F08100010050E030C0FFFE
:100F2000F8B50446002500200090204600F039F96D
:100F3000012868D10020E16821F47E610143E1606D
:100F400000BF00BFA068C0F3800060B1204600F081
:100F500063F940B900BFA0686B49084040F0100039
:100F6000A06000BF00BF0020E16C21F4FE710143CE
:100F7000E16400BF00BFA068C0F3C00060B12046BC
:100F800000F0EEF840B900BFA0685F49084040F0AB
:100F90002000A06000BF00BF4FF47860009006E022
:100FA0000098401E0090009808B9012509E02046ED
:100FB00000F032F90646204600F0D2F80643012E32
:100FC000EED000BF4FF40010E168504A11400143D9
:100FD000E16000BF00BFA0684B490840801CA060D2
:100FE00000BF4FF47860009006E00098401E00902B
:100FF000009808B9012505E000BFA068C0F34000D3
:101000000028F2D100BFA06800F03F00002877D18F
:1010100060686FF30A006060206840F2FF71084367
:101020002060A06820F0A040A060A06840F00050C0
:10103000A060E06834494431084040F00040E0607E
:101040002069334908402061606932490840606185
:10105000A06900F07840A061206A2F4908402F491C
:1010600008432062606A00F0FF2040F47F00606265
:10107000A06A00F0FF2040F47F00A062206B2849A6
:1010800008402063606B2649103908406063A06BFC
:101090000840A063E06B40F2DF718843E063E06CDE
:1010A00020490840E064206E1F4908402066606EB9
:1010B00008406066A06E0840A066E06E0840E066EA
:1010C000D4F8A0006FF31200C4F8A000D4F8A40074
:1010D0006FF31200C4F8A400D4F8B0006FF312004C
:1010E000C4F8B000D4F8B40020F07F10C4F8B40005
:1010F000D4F8C0006FF30D00C4F8C00001E0FFE7B2
:1011000001252846F8BD0000C0FFFF7FFFFFDF7FFD
:1011100000F8FEF1070000C0008000F00000FF0FA3
:10112000300882E00040100400F0FF008168024AAD
:101130001140816070470000C0FFFF5F8168024A74
:101140001140491C81607047C0FFFF7F8168034ADE
:10115000114041F08051816070470000C0FFFF7F67
:1011600001468868C0F34010704770B505460C46CC
:101170000026284600F015F858B9D4E900010843C4
:10118000A1680843E9684CF2180291430843E860FB
:1011900000E00126304670BD01460868C0F38000BB
:1011A00070470146886800F00100704770B5054639
:1011B0000C460026606800B100BF2846FFF7F1FF2B
:1011C00020BB606870B1A16820680843E1680843EB
:1011D0002169084361690843E9680E4A11400843E0
:1011E000E8600BE0E1682068084321690843616911
:1011F0000843E968074A11400843E8606068296BC2
:1012000021F00F010143296300BF00E001263046B1
:1012100070BD00001CC0F0FF01468868C0F30010DC
:10122000704770B500F13004C1F3012504EB85036C
:101230001C6801F01F061F25B540AC4301F01F06D6
:10124000C2F38465B5402C431C6070BD8168024ABE
:101250001140091D81607047C0FFFF7F70B500F12C
:101260001404C1F3406504EB85031C68C1F3045604
:101270000725B540AC43C1F3045502FA05F52C43EC
:101280001C6070BD30B5D0F8B030C1F31204A34378
:1012900002F01805034CEC400C402343C0F8B0307A
:1012A00030BD0000FFFF0700D0F8C0206FF30D0233
:1012B0000A43C0F8C020026922F4803209B1012338
:1012C00000E0002342EA034202617047026940F2F3
:1012D00003439A430A430261704700008268044B4B
:1012E0001A4001F0804343F000431A438260704784
:1012F000C0FFFF3F08B50549C96C0143034AD164EB
:101300001146C96C0140009100BF08BD00100240A9
:1013100008B50549C96C0143034AD1641146C96C3B
:101320000140009100BF08BD0010024008B505490A
:10133000C96C0143034AD1641146C96C0140009154
:1013400000BF08BD0010024008B50549C96C014343
:10135000034AD1641146C96C0140009100BF08BD29
:101360000010024008B50549C96C0143034AD16425
:101370001146C96C0140009100BF08BD0010024039
:1013800008B50549896D0143034A91651146896D88
:101390000140009100BF08BD00100240F0B50346B7
:1013A0000A46106890FAA0F0B0FA80F47BE00125BC
:1013B000A540106800EA0501002973D050681D6837
:1013C00091FAA1F6B6FA86F677000326BE40B54339
:1013D00091FAA1F6B6FA86F6760000FA06F63543DB
:1013E0001D6000BF5068012802D05068022814D147
:1013F00090689D6891FAA1F6B6FA86F67700032602
:10140000BE40B54391FAA1F6B6FA86F6760000FA28
:1014100006F635439D6000BF00BF1069DD6891FA94
:10142000A1F6B6FA86F677000326BE40B54391FAD8
:10143000A1F6B6FA86F6760000FA06F63543DD60C8
:1014400000BF506802282DD1FF2914D850691D6AA9
:1014500091FAA1F6B6FA86F6B7000F26BE40B5435C
:1014600091FAA1F6B6FA86F6B60000FA06F635430A
:101470001D6200BF16E050695D6A0E0A96FAA6F674
:10148000B6FA86F6B7000F26BE40B5430E0A96FAA6
:10149000A6F6B6FA86F6B60000FA06F635435D62A1
:1014A00000BF00BF641C1068E04000287FF47FAFDD
:1014B0005068012802D05068022809D1D568106808
:1014C0005E68864300FB05F73E435E6000BF00BFD9
:1014D0000020F0BD024610690840884201D1012079
:1014E00070470020FCE7024610690840884201D19D
:1014F000012070470020FCE78162704781627047DD
:101500008161704781617047816170474FF47A71E2
:10151000B0FBF1F2521E4FF0E0235A6100229A61B3
:1015200005221A6100BF70472DE9F04104460025ED
:10153000C02C2CD100BF17480068204040EA04406E
:10154000B0F5400F18D0A0F54000403820B1402839
:1015500006D080280FD108E000F0D4FB054615E046
:1015600000F0B4F800B10C4D10E000F0B7F808B18D
:101570004FF400450AE000BF00F0C4FB074600F04E
:1015800087FB064600F096FB054600BF00BF2846D5
:10159000BDE8F081881002400024F4002DE9F041FC
:1015A00004460025032C29D1204600F085F8B0F52B
:1015B000403F18D06FF44031084420B1012806D0D4
:1015C00002280FD108E000F09DFB054615E000F071
:1015D0007DF800B1374D10E000F080F808B14FF40D
:1015E00000450AE000BF00F08DFB074600F050FB0D
:1015F000064600F073FB054600BF57E00C2C29D1CE
:10160000204600F059F8B0F5402F18D0A0F5402042
:10161000001F20B1042806D008280FD108E000F0F0
:1016200071FB054615E000F051F800B1214D10E0C6
:1016300000F054F808B14FF400450AE000BF00F094
:1016400061FB074600F024FB064600F033FB05462D
:1016500000BF2BE0302C29D1204600F02DF8B0F54A
:10166000401F18D0A0F54010103820B1102806D027
:1016700020280FD108E000F045FB054615E000F0FA
:1016800025F800B10B4D10E000F028F808B14FF438
:1016900000450AE000BF00F035FB074600F0F8FA0D
:1016A000064600F007FB054600BF00BF2846BDE820
:1016B000F08100000024F40001460348006808405F
:1016C00040EA01407047000088100240024800686C
:1016D000C0F38020704700000010024002480068FC
:1016E000C0F3400070470000901002400248C068FC
:1016F000C0F30620704700000010024003498968CB
:1017000021F0F0010143014A91607047001002404E
:1017100030B50246012300BF1068C0F3801040BB03
:10172000D1E900042043CC6820430C6920434C6974
:1017300020438C692043CC6920430C6A2043146801
:101740004FF6BF75AC43204310604C69886840EA8F
:101750001440546840F60475AC4320435060086A56
:10176000B0F5005F04D1486A84B2146100BF00BFC5
:101770000023D06920F40060D061184630BD0146D6
:10178000886800F00100704701468868C0F3400097
:101790007047017370474FF0E020006940F002008D
:1017A0004FF0E02108617047014908607047000070
:1017B000EC000020026A0A4302627047016821F0CF
:1017C000800101607047816821F08001816070476D
:1017D000016841F0010101607047C16841F00201F8
:1017E000C1607047C16841F00101C16070470000ED
:1017F000F0B503461446012901D1002525E004294E
:1018000001D1012521E0102901D102251DE0402947
:1018100001D1032519E0B1F5807F01D1042514E041
:10182000B1F5806F01D105250FE0B1F5805F01D1E1
:1018300006250AE0B1F5804F01D1072505E0B1F595
:10184000803F01D1082500E009252846084D2E5C7F
:1018500003F1180572191568064E375C0326BE4061
:10186000B543260C034F3F5CBE4035431560F0BDC9
:101870001053000824530008F0B50346144601290C
:1018800001D1002525E0042901D1012521E01029FD
:1018900001D102251DE0402901D1032519E0B1F550
:1018A000807F01D1042514E0B1F5806F01D10525B9
:1018B0000FE0B1F5805F01D106250AE0B1F5804F58
:1018C00001D1072505E0B1F5803F01D1082500E0F1
:1018D00009252846084D2E5C03F118057219156874
:1018E000064E375CF026BE40B543260C034F3F5CE6
:1018F000BE4035431560F0BD105300082453000866
:1019000070B5012901D1002425E0042901D1012469
:1019100021E0102901D102241DE0402901D1032436
:1019200019E0B1F5807F01D1042414E0B1F5806F96
:1019300001D105240FE0B1F5805F01D106240AE052
:10194000B1F5804F01D1072405E0B1F5803F01D109
:10195000082400E009242346046A064DEE5C0A25AB
:10196000B540AC43034DED5C02FA05F52C4304622F
:1019700070BD00002E530008F0B50346144601293F
:1019800001D1002525E0042901D1012521E01029FC
:1019900001D102251DE0402901D1032519E0B1F54F
:1019A000807F01D1042514E0B1F5806F01D10525B8
:1019B0000FE0B1F5805F01D106250AE0B1F5804F57
:1019C00001D1072505E0B1F5803F01D1082500E0F0
:1019D00009252846084D2E5C03F118057219156873
:1019E000064E375C0C26BE40B543260C034F3F5CC9
:1019F000BE4035431560F0BD105300082453000865
:101A000010B502461368294882420BD0B2F1804FCC
:101A100008D02748824205D02648824202D0264874
:101A2000824204D123F070004C6840EA04031F484E
:101A3000824214D0B2F1804F11D01D4882420ED0A4
:101A40001C4882420BD01C48824208D01B4882426C
:101A500005D01B48824202D01A48824204D123F4A6
:101A60004070CC6840EA040313608868D06200BF0D
:101A70000888906200BF0D4882420BD00E48824217
:101A800008D00E48824205D00D48824202D00D484F
:101A9000824203D10869106300BF00BF00BF5069D4
:101AA00040F00100506100BF002010BD002C01403B
:101AB00000040040000800400034014000400140A4
:101AC000004401400048014001460869C0F340005D
:101AD00070474162704700004268024B1A400A4357
:101AE000426070478FFFFFFDF8B504460D460127A1
:101AF0000026204600F05EF800284ED12969A8682B
:101B0000084369690843E96908432168244A114088
:101B100008432060E868616821F440510143616036
:101B200000BFA869A16821F440710143A16000BF12
:101B30001C48844204D10320FFF730FD064616E01E
:101B40001948844204D10C20FFF728FD06460EE018
:101B50001648844204D13020FFF720FD064606E0F7
:101B60001348844203D1C020FFF7DEFC06465EB175
:101B7000686848B100276868009031462046EB69E4
:101B80002A6800F01DF800BF2868E16A21F00F0103
:101B900082B21143E16200BF00BF3846F8BD0000C9
:101BA000F369FFEF00380140004400400048004066
:101BB000004C00400146086800F00100704700003A
:101BC000F0B51D46059C0B2A25D8B5F5004F15D15B
:101BD000D7B2DFF844C05CF82770B1FBF7F77F009D
:101BE00007EB5407B7FBF4F7BBB24FF6F07703EA05
:101BF0000706C3F342073E43C6600CE0D7B2DFF8E6
:101C000018C05CF82770B1FBF7F707EB5407B7FB78
:101C1000F4F7BFB2C760F0BD4853000808B50146ED
:101C20004FF0E0221269009200BF0846421C02B148
:101C3000401C06E04FF0E022126902F4803202B14B
:101C4000401E0028F6D108BD00BFFEE77047F0B582
:101C500003460C4603F00701C1F10700042801D92F
:101C6000042001E0C1F107000646081D072801D243
:101C7000002000E0C81E05460120B040401E204064
:101C8000A8400127AF407F1E17403843F0BD704782
:101C9000014600BF0548806800F0F0000009044AD2
:101CA000105C00F01F0221FA02F0704700100240A1
:101CB00078530008014600BF0648806800F4E060E1
:101CC000054A02EB1020007800F01F0221FA02F012
:101CD000704700000010024088530008014600BF12
:101CE0000648806800F46050054A02EBD020007876
:101CF00000F01F0221FA02F07047000000100240BD
:101D00008853000810B500BF0A49896801F00C012A
:101D1000042904D0082904D00C2907D103E006487F
:101D200006E0064804E000F00BF801E0024800BFBE
:101D300000BF10BD001002400024F40000366E0108
:101D400070B500BF1348C06800F003000546022DBF
:101D500002D0032D04D101E00F4C03E00F4C01E051
:101D60000D4C00BF00BFFFF7C1FC60430949C968C3
:101D700001F0F001012202EB1111B0FBF1F1054875
:101D8000C06800F0C06002EB50604000B1FBF0F0B2
:101D900070BD0000001002400024F40000366E0107
:101DA00000B501210020FFF743F84FF47A70FEF7E9
:101DB0005AFD00210120FFF73BF841F290711020FD
:101DC000FFF736F84FF41C516020FFF731F801217E
:101DD0006120FFF72DF802214620FFF729F848F28D
:101DE00010011320FFF724F848F2FE011220FFF73C
:101DF0001FF84FF4A0610220FFF71AF841F23001FA
:101E00000320FFF715F840F203313020FFF710F8F8
:101E100040F203313120FFF70BF840F2033132205A
:101E2000FFF706F84FF440713320FFF701F8032164
:101E30003420FEF7FDFF40F203313520FEF7F8FFB6
:101E400014213620FEF7F4FF40F203313720FEF76D
:101E5000EFFF40F203313820FEF7EAFF40F2033192
:101E60003920FEF7E5FF4FF440713A20FEF7E0FF1E
:101E700003213B20FEF7DCFF40F203313C20FEF75C
:101E8000D7FF4FF4A0513D20FEF7D2FF4FF4007171
:101E90009220FEF7CDFF40F203319320FEF7C8FFFA
:101EA00040F60D019020FEF7C3FF41F21801032018
:101EB000FEF7BEFF40F273110720FEF7B9FF00BD29
:101EC00010B543F20801E320FEF7B2FF1221E7202C
:101ED000FEF7AEFF41F23121EF20FEF7A9FF00210E
:101EE0000120FEF7A5FF4FF4E0610220FEF7A0FFFE
:101EF00041F230010320FEF79BFF00210420FEF792
:101F000097FF40F207210820FEF792FF00210920E9
:101F1000FEF78EFF00210A20FEF78AFF00210C2029
:101F2000FEF786FF00210D20FEF782FF00210F2023
:101F3000FEF77EFF00211020FEF77AFF0721112017
:101F4000FEF776FF00211220FEF772FF002113201A
:101F5000FEF76EFFC820FFF761FE41F2906110208E
:101F6000FEF766FF40F227211120FEF761FF3220C5
:101F7000FFF754FE1D211220FEF75AFF3220FFF713
:101F80004DFE4FF400611320FEF752FF142129206B
:101F9000FEF74EFF0B212B20FEF74AFF3220FFF702
:101FA0003DFE00212020FEF743FF00212120FEF707
:101FB0003FFF07213020FEF73BFF40F20771312041
:101FC000FEF736FF06213220FEF732FF40F20471A1
:101FD0003520FEF72DFF41F604713620FEF728FF6D
:101FE00004213720FEF724FF00213820FEF720FFD0
:101FF00040F206713920FEF71BFF40F201713C20D0
:10200000FEF716FF0F213D20FEF712FF00215020A2
:10201000FEF70EFFEF215120FEF70AFF00215220AC
:10202000FEF706FF40F23F115320FEF701FF4FF489
:102030001C516020FEF7FCFE01216120FEF7F8FE36
:1020400000216A20FEF7F4FE00218020FEF7F0FE5A
:1020500000218120FEF7ECFE00218220FEF7E8FE41
:1020600000218320FEF7E4FE00218420FEF7E0FE3D
:1020700000218520FEF7DCFE10219020FEF7D8FE1F
:1020800000219220FEF7D4FE03219320FEF7D0FE1C
:102090004FF488719520FEF7CBFE00219720FEF7C4
:1020A000C7FE00219820FEF7C3FE41F2180103206D
:1020B000FEF7BEFE40F273110720FEF7B9FE10BD19
:1020C00030B10849096841F04001064A116007E053
:1020D00004491031096841F04001024A1032116090
:1020E0007047000018040048802006490969014033
:1020F000814201D1012100E0002109B10120704796
:102100000020FCE70004004800B587B0182101A8B2
:10211000FEF785F8802001900020029001200590B4
:102120000220039001A90248FFF738F907B000BD6B
:102130000004004830B10849096841F08001064AAE
:10214000116007E004491031096841F08001024A3A
:1021500010321160704700001804004800B587B0C5
:10216000182101A8FEF75BF8802001900120029061
:102170000490002005900220039001A90248FFF777
:102180000DF907B000BD00000004004810B500BF05
:102190000948FFF7F9FA0028FAD000210648FFF7AE
:1021A000F8FA00BF0448FFF7EAFA0028FAD000BFA7
:1021B0000148C068C0B210BD0038004010B50446E8
:1021C00000BF0A48FFF7E0FA0028FAD02146074886
:1021D000FFF7DFFA00BF0548FFF7D1FA0028FAD071
:1021E00000BF0248C068C0B210BD00000038004007
:1021F00070470000124800781E2804DA1048007862
:10220000401C0F4908700F480078642804DA0D4814
:102210000078401C0B4908700B480078C82804DA85
:1022200009480078401C0849087008480078C82808
:1022300004DA06480078401C044908707047000022
:10224000CC000020CD000020CE000020CF000020D8
:10225000F8B501207049096E01436F4A11661146B5
:10226000096E0140009100BF00BF00071146896D53
:10227000014391651146896D0140009100BF00BF87
:1022800003200246654B19684FF6FF031940644B63
:102290000B4343EA0221614B196000BF00BF614854
:1022A000806840F480405F49886000BF04205E4938
:1022B000096821F00F0101435B4A116000BF00BFB4
:1022C00000BF5948006800F00F000428F8D100BF93
:1022D00054488030006820F480705249C1F8800072
:1022E00000BF00BF4C48006840F480304A49086095
:1022F00000BF00BF00BF48480068C0F3404000284E
:10230000F8D0032050215522002340EA010444EA7A
:1023100002241C43404DED68444E35402C433E4D55
:10232000EC6000BF00BF2846C06840F080702946BE
:10233000C86000BF00BF0846006840F080700860B9
:1023400000BF00BF00BF34480068C0F340600028F1
:10235000F8D003203049896821F0030101432E4A57
:10236000916000BF8020FFF7C9F900BF00BF2A4875
:10237000806800F00C000C28F8D12848F030006884
:1023800040F080702549F03108602948006840F02D
:102390000100274908600020486000BF24484068C9
:1023A0006428FBD30020FFF7A9F900201A498968A7
:1023B00021F4E0610143184A916000BF00BF11465B
:1023C000896821F460510143916000BF1948FFF70B
:1023D0009DF81848FFF7E8F94FF440300E4988316E
:1023E000096821EA104182B211430B4AC2F88810F1
:1023F00000BF1148084988310968030C03229A403C
:102400009143C2B2030C9A401143034AC2F88810A8
:1024100000BFFFF7C0F9F8BD001002400CED00E06E
:102420000000FA0500700040002002400C80FFF917
:10243000001000E080FE210A02001C000548006830
:1024400040F47000034908604FF000600149803992
:102450000860704788ED00E010B500BF6FF0010024
:102460004FF08041086100BF0846FFF72DFBC0B167
:1024700000BF4FF08040406B0A49086000214FF0D8
:102480008040FFF726FB074800680749B1FBF0F0E2
:102490000649086000BF6FF002008107086100BFB5
:1024A00000BF10BDD000002080969800D40000200E
:1024B00010B500BF6FF001000F49086100BF08466A
:1024C000FFF702FBB0B100BF0B48406B0B4908603F
:1024D00000210948FFF7FDFA084800680849B1FBE8
:1024E000F0F00849086000BF6FF00200024908617F
:1024F00000BF00BF10BD000000040040D800002055
:1025000080969800DC00002000BFFEE70FB4084B67
:1025100010B504A902AA039800F008F9044602A91C
:10252000002000F09AFC204610BC5DF814FB00006F
:102530005B2E0008002809DB00F01F0201219140FA
:102540004209920002F1E022C2F800117047000037
:1025500002480068C0F30220704700000CED00E064
:1025600010B5002804DB0A07130E054A135406E0D1
:102570000A07140E034A00F00F031B1FD45410BDAA
:1025800000E400E018ED00E002E008C8121F08C1F6
:10259000002AFAD170477047002001E001C1121FE4
:1025A000002AFBD1704700002DE9FF5F82B00021B7
:1025B000DDE90430020DDDF840B0034318D044F6E5
:1025C0001050A2F2FF3242431514119801281FD077
:1025D000A5EB0B00401C5FEA000A4FF000064E4FCF
:1025E000DFF83891B046504615D5CAF1000413E023
:1025F000119801244AA3012801D16FEA0B01029826
:10260000119AC0E90031C0E9024206B0BDE8F09F6E
:10261000CBF10000DFE704460021404A491842EBB5
:102620000450CDE9001012E0E00707D032463B46E7
:1026300040464946FDF7FEFD8046894632463B4608
:1026400010461946FDF7F6FD06460F466410002CAD
:10265000EAD1DDE90401DDE90023BAF1000F06DA71
:10266000FDF7E8FD42464B46FDF7E4FD05E0FDF7CA
:1026700053FE42464B46FDF74FFE04460E460022EF
:10268000284BFEF729F803D84FF0FF30014607E04A
:102690000022254B20463146FDF75EFFFEF703F88A
:1026A000102409E0002C0ADB0A220023FDF7C6FEF5
:1026B000039B30321A55641E50EA0102F2D1641CA9
:1026C000039AC4F111031444119A012A03D0012280
:1026D00008430DD10AE0084304D000204FF0110B4D
:1026E000119072E7A3EB0B056D1E0DE05B4504DD59
:1026F0004FF0000205F1010504E003DA4FF000029B
:10270000A5F10105002AECD002981199C0E9023127
:10271000C0E9004579E70000000014400000F03FE8
:10272000300000000000F0430000E03F2DE9FF4FC3
:1027300095B09B468946064600250FE2252877D1AD
:1027400000242746F84A0121059400E0044316F8C6
:10275000013F203B01FA03F01042F7D130782A28DC
:1027600011D06FF02F033078A0F13002092A16D86B
:10277000059A44F0020402EB820203EB4202104489
:10278000761C0590EFE759F8042B0592002A03DA2E
:10279000504244F40054059044F00204761C307812
:1027A0002E2816D116F8010F44F004042A280DD063
:1027B0006FF02F023078A0F13003092B09D807EB16
:1027C000870302EB4303C718761CF3E759F8047B31
:1027D000761C30786C280FD006DC4C2817D068287F
:1027E0000DD06A2814D104E0742810D07A280FD1B3
:1027F0000DE044F400140AE044F4801401E044F4D1
:1028000040147278824202D104F58014761C761C42
:10281000307866280BD013DC582877D009DC0028E4
:1028200075D04528F6D04628F4D047281AD19DE126
:1028300018E0632835D0642879D0652812D195E155
:10284000702873D008DC6728F1D069286FD06E2813
:102850000DD06F2806D1B5E073282CD0752875D01F
:10286000782874D05A46179990476D1C75E1C4F3C7
:102870000250022809D003280DD0D9F800100428EE
:102880000DD00D6009F1040967E1D9F80010EA17CD
:10289000C1E90052F6E7D9F800100D80F2E70D709B
:1028A000F0E719F8041B8DF8001000208DF80100E6
:1028B000EA46012003E059F804AB4FF0FF3061070E
:1028C0004FF0000102D40DE008F101018846B94241
:1028D0000FDA8045F8DB1AF808100029F4D108E077
:1028E00008F1010188468142FADB1AF80810002934
:1028F000F6D105985B46A0EB080721463846179AA3
:1029000000F094FA284400EB080507E04DE029E1C7
:102910000DE01AF8010B5A4617999047B8F10108D3
:10292000F7D25B4621463846179A13E142E00A2265
:102930000092C4F302524FF0000A022A08D059F85C
:1029400004CB032A4FEAEC710AD00DE029E02AE01B
:1029500009F1070121F00702F2E802C1914609E0FE
:102960000FFA8CFC4FEAEC71042A03D14FFA8CFC6D
:102970004FEAEC71002907DA0A460021DCF1000C6D
:1029800061EB02012D2202E0220504D52B228DF8F5
:102990000420012203E0E20701D02022F7E790465D
:1029A00059E00A2102E010220DE010214FF0000A48
:1029B00000910BE010224FF0000A44F004040827B5
:1029C000009203E008224FF0000A0092C4F3025282
:1029D000022A05D059F804CB0021032A08D009E0C7
:1029E00009F1070121F00702F2E802C1914605E072
:1029F0001FFA8CFC042A01D10CF0FF0C4FF00008E8
:102A0000220728D5702806D0009B83F0100353EAD4
:102A10000A0305D00EE040228DF80420012208E0D0
:102A20005CEA010206D030228DF804208DF8050002
:102A300002229046009B83F0080353EA0A030AD15E
:102A40005CEA010201D1620705D530228DF804202D
:102A50004FF001087F1E582804D034A003900EA820
:102A600002900DE036A0F9E753466046009AFDF764
:102A7000E5FC84460398825C0298401E0290027036
:102A80005CEA0100F0D1029806A9081A00F1200AB8
:102A9000600702D524F4803400E00127574502DDA9
:102AA000A7EB0A0000E0002000EB0A010090059867
:102AB0004144401A0590E00306D45B462146179A2C
:102AC000059800F0B3F90544002706E001A85A462E
:102AD000C05D179990476D1C7F1C4745F6DBE003EE
:102AE0000CD55B462146179A059800F09FF90544DE
:102AF00004E030205A46179990476D1C0099481EF3
:102B000000900029F5DC08E0029802995A46007806
:102B1000491C0291179990476D1CBAF10001AAF166
:102B2000010AF1DC65E1000009280100303132338F
:102B300034353637383961626364656600000000F9
:102B400030313233343536373839414243444546E3
:102B50000000000000F058F90544761C3078002889
:102B60007FF4ECAD19B02846BDE8F08F620700D4C1
:102B7000062709F1070222F0070CFCE80223E146D0
:102B800003F000485FEA080C02D00FF2702C0DE051
:102B90005FEA045C02D50FF2682C07E05FEAC47CB0
:102BA00002D00FF2602C01E0AFF2700C4FF0FF3852
:102BB00023F00043CDF850C065280CD006DC452832
:102BC00009D046281DD047283DD13DE0662818D0C1
:102BD00067287ED138E00021112F01DB112000E0B1
:102BE000781CCDE9000106A90EA8FFF7DDFCDDE9A0
:102BF0000F010E9A03910021009207F1010A04913E
:102C00004DE04FF000400097CDE9011006A90EA855
:102C1000FFF7CAFCDDE90F0203920E9B1199002217
:102C2000DDF80CA00093049211B9791C00EB010AA5
:102C3000B7EB0A0004D4C0F1FF3007F1010A049099
:102C4000AAEB0700019044E0012F00DA01270021E0
:102C5000112F01DD112000E03846CDE9000106A961
:102C60000EA8FFF7A1FCDDE90F010E9A03910021E8
:102C700004910092BA4621070CD40399514500DA19
:102C80008A46BAF1010F05DD009AAAF10101515CF3
:102C9000302908D0B84202DA10F1040F06DA012117
:102CA000CDE9011015E0AAF10101E9E7002805DCF2
:102CB000049901440491AAEB000102E0411C514532
:102CC00000DD8A460499401A401C01904FF00040F4
:102CD0000290200704D40198504501DBCDF8048010
:102CE00000208DF84F0002980DF14F07B0F1004F12
:102CF00025D02B200E9002984FF0020800280CDA05
:102D0000404202902D200E9007E00A210298FDF724
:102D10007FFB3031029007F8011DB8F10001A8F1E6
:102D20000108F2DC02980028EFD1791E0E98087095
:102D3000307800F0200040F0450007F8020D12A89E
:102D4000C01B00F107081498007800B1012000EBC7
:102D50000A01019801EBE07105984144401A401EB8
:102D60000590E00306D45B462146179A059800F0CB
:102D70005DF805441498007818B15A4617999047A1
:102D80006D1CE00324D55B462146179A059800F098
:102D90004DF805441CE00498002807DBDDE9030139
:102DA000884203DD0098405C179901E017993020B4
:102DB0005A469047049805F10105401C049001987B
:102DC000401E019004D12E205A46179990476D1C41
:102DD000BAF10001AAF1010ADDDC05E017F8010BE8
:102DE0005A46179990476D1CB8F10001A8F10108E7
:102DF000F4DC5B462146179A0598ABE62D000000EF
:102E00002B000000200000002DE9F04104460025C1
:102E10001E461746880404D405E039462020B047F2
:102E20006D1C641EF9D52846BDE8F0812DE9F041FE
:102E3000044600251E469046C80301D5302700E011
:102E40002027880404D505E041463846B0476D1C6C
:102E5000641EF9D52846BDE8F0810A68531C0B6052
:102E600010707047002100E0491C8142FCD370477C
:102E700010B50B4A06214FF0A040FEF7D2F94FF0F3
:102E8000A040FEF7E3F900BF4FF0A040FEF784F941
:102E90000028F9D000BF4FF0A040006C80B210BDF8
:102EA0000008302E10B50B4A06214FF0A040FEF767
:102EB000B8F94FF0A040FEF7C9F900BF4FF0A040AD
:102EC000FEF76AF90028F9D000BF4FF0A040006C6F
:102ED00080B210BD2000F01410B5094A062109483F
:102EE000FEF79FF90748FEF7B1F900BF0548FEF766
:102EF00053F90028FAD000BF0248006C80B210BD20
:102F00000080F03E0001005010B594B000201190F8
:102F10001290139018210BA8FDF781F9002007905B
:102F2000089009900A90182101A8FDF778F94FF44C
:102F30000050FEF709FA0220FEF706FA4FF4A0400F
:102F40000190032002900020059001A93F48FEF760
:102F500025FA4FF0A040FDF7E3FF002011901290FA
:102F60004FF48040139011A94FF0A040FEF7FDF8F8
:102F700000200B900C900D900E900F9010900BA9CC
:102F80004FF0A040FEF712F900214FF0A040FEF7ED
:102F90008BF900214FF0A040FEF798F94FF4403034
:102FA00007900020089007A92948FDF789FF4FF0F6
:102FB000A040FEF7BBF84FF0A040FEF7C7F8254849
:102FC00000682549B0FBF1F000EB800040000A21C9
:102FD000B0FBF1F400E0641E002CFCD11F4A062176
:102FE0004FF0A040FEF71DF907221C494FF0A0400A
:102FF000FEF734F97F2219494FF0A040FEF742F95D
:10300000174A0C214FF0A040FEF70BF90722144994
:103010004FF0A040FEF722F97F2211494FF0A04067
:10302000FEF730F97F214FF0A040FEF757F900BFBF
:1030300000BF4FF0A0408068C00F0028F8D14FF0CB
:10304000A040FEF77BF814B010BD0000000400485B
:1030500000030050EC000020400D03000008302E5B
:103060002000F01410B590B000200D900E900F903D
:10307000182107A8FDF7D3F8182101A8FDF7CFF80C
:103080004FF40050FEF760F90220FEF75DF94FF4AF
:1030900000400190032002900020059001A92A48D9
:1030A000FEF77CF92948FDF73BFF00200D900E90BC
:1030B0000F900DA92548FEF758F8002007900890BA
:1030C00009900A900B900C9007A92048FEF76EF823
:1030D00000211E48FEF7E8F800211C48FEF7F6F82C
:1030E0001A48FEF723F81948FEF730F81848006828
:1030F0001849B0FBF1F000EB800040000A21B0FB62
:10310000F1F400E0641E002CFCD1134A06210F48A4
:10311000FEF787F8052210490C48FEF79FF87F223A
:103120000D490A48FEF7AEF87F210848FEF7D6F8A9
:1031300000BF00BF05488068C00F0028F9D10348D0
:10314000FDF7FCFF10B010BD000400480001005066
:10315000EC000020400D03000080F03E00B587B079
:1031600002200C49C96C01430A4AD1641146C96C5A
:103170000140009100BF00BFC020019001200290DB
:1031800005900220039001A90348FEF707F907B054
:1031900000BD0000001002400004004800B587B0E8
:1031A0000120FEF7A7F80220FEF7A4F807200190FF
:1031B000002002900120059001A90848FEF7EEF8D2
:1031C00001200190002002900120059001A94FF0FC
:1031D0009040FEF7E3F807B000BD0000000400488F
:1031E00010B5FDF71FFD0020FDF78EFD4FF6FF70B7
:1031F000FDF79EFD0020FDF761FC10BD00B587B016
:103200000420FEF785F80820FEF782F84FF47F408F
:103210000190012002900020049001A94748FEF788
:10322000BDF804200190012002900020049001A923
:103230004348FEF7B3F84FF480714048FEF762F957
:1032400004213F48FEF75EF900BF00BF00BF042124
:103250003B48FEF753F94FF480613848FEF752F9C6
:1032600004213748FEF74EF900BF00BF00BF04211C
:103270003348FEF743F94FF480513048FEF742F9E6
:1032800004212F48FEF73EF900BF00BF00BF042114
:103290002B48FEF733F94FF480412848FEF732F906
:1032A00004212748FEF72EF900BF00BF00BF04210C
:1032B0002348FEF723F94FF400712048FEF722F966
:1032C00004211F48FEF71EF900BF00BF00BF042104
:1032D0001B48FEF713F94FF400611848FEF712F986
:1032E00004211748FEF70EF900BF00BF00BF0421FC
:1032F0001348FEF703F94FF400511048FEF702F9A6
:1033000004210F48FEF7FEF800BF00BF00BF0421F4
:103310000B48FEF7F3F84FF400410848FEF7F2F8C7
:1033200004210748FEF7EEF800BF00BF00BF0421EC
:103330000348FEF7E3F807B000BD000000080048AE
:10334000000C004800B591B04FF480404149896DB0
:103350000143404A91651146896D0140009100BFCB
:1033600000BF02201146C96C0143D1641146C96CEB
:103370000140009100BF00BF0003019002200290B5
:10338000039000200490022005900520069001A9DA
:103390003148FEF703F84FF480400190022002907C
:1033A00000200390049005900520069001A92A486A
:1033B000FDF7F4FF4FF400400190022002900390CB
:1033C00000200490022005900520069001A92248C3
:1033D000FDF7E4FF4FF4805001900120029002209D
:1033E0000390002004900120059001A91A48FDF7E0
:1033F000D5FF4FF480511848FEF786F8002007905B
:103400004FF4827008904FF4E060099000200A9019
:103410000B904FF400700C9010200D9000200E9037
:103420000720109000200F9007A90C48FEF770F9B4
:1034300000BF0A48006840F040000849086000BF2B
:103440008814496821F480510143044A516000BF47
:1034500011B000BD001002400004004800380040D8
:1034600010B5FEF7F5FEFEF796F900F00BF800F048
:103470008BF8FFF773FEFFF791FEFFF7BFFEFFF734
:10348000AFFE10BD30B58BB0142106A8FCF7C7FE07
:1034900018216846FCF7C3FE0120FDF771FF0120EB
:1034A000FDF760FF4FF400400090022001900020E3
:1034B0000290039004900120059069464FF09040DF
:1034C000FDF76CFFFFF744F8054600221146FEF7B2
:1034D000BEFB044621461C20FFF742F81C20FFF7E4
:1034E00029F81020ADF81800002007904FF6FF7063
:1034F00008900020099006A94FF08040FEF780FA5E
:103500004FF08040FEF75AF900214FF08040FEF75F
:10351000E3FA4FF08040FEF756F94FF48032012174
:103520008807FEF765F9002201218807FEF724FAD3
:103530004FF4401201218807FEF79EF90022012175
:103540008807FEF7DDF900BF6FF001004FF0804102
:10355000086100BF00BF6FF40070086100BF00BFCA
:103560000012086100BF8007FEF73CF94FF0804071
:10357000FEF733F901218807FEF71CF94FF0804070
:10358000FEF726F90BB030BD30B58BB0142106A87C
:10359000FCF745FE18216846FCF741FE0220FDF7C6
:1035A000EFFE0220FDF7DEFE1020009002200190C9
:1035B00003200290002003900490022005906946A9
:1035C0002E48FDF7EBFEFEF7C3FF0546002211462D
:1035D000FEF73DFB044621461D20FEF7C1FF1D20DE
:1035E000FEF7A8FF1020ADF81800002007904FF656
:1035F000FF700890002009900A9006A92048FEF765
:10360000FFF91F48FEF7DAF800211D48FEF764FABB
:103610001B48FEF7D8F84FF4803201211848FEF716
:10362000E7F8002201211648FEF7A6F90022012141
:103630001348FEF721F9002201211148FEF760F935
:1036400000BF6FF001000E49086100BF00BF6FF4BA
:103650000070086100BF00BF0012086100BF08468B
:10366000FEF7BBF80648FEF7BDF801210448FEF757
:10367000A1F80348FEF7ACF80BB030BD00040048D9
:10368000000400402DED068B88B0FFF7E9FEFDF742
:1036900081F8002000F0D3FC8049087008460078CB
:1036A000401CC0B20A4610700146002000F0E5FC44
:1036B000052000F0B3FC00F037FC7848027878A1D0
:1036C0007A48FEF723FFE7E0794800781E2804D106
:1036D00000207749087000F05FF900F0EFF97548B5
:1036E0000078642873D1002072490870724800780D
:1036F00001286ED1FFF708FCFFF7B4FCFFF7ECFBE5
:103700000446FFF7B5FB0546FFF7CCFB064620460F
:10371000FCF771FE41EC1A0B9FED680B53EC102B7C
:10372000FCF788FD41EC190B9FED660B53EC102B59
:10373000FCF7F2FD41EC180B53EC182B63A15B482E
:103740007838FEF7E3FE2846FCF755FE41EC1A0BED
:103750009FED5A0B53EC102BFCF76CFD41EC190B51
:103760009FED580B53EC102BFCF7D6FD41EC180BDA
:1037700053EC182B59A14D486438FEF7C7FE30466C
:10378000FCF739FE41EC1A0B9FED4C0B53EC102B60
:10379000FCF750FD41EC190B9FED4A0B53EC102B3D
:1037A000FCF7BAFD41EC180B53EC182B4FA13F4826
:1037B0005038FEF7ABFE51A13C481438FEF7A6FE88
:1037C0003648027836A13948FEF7A0FE39E046E0D7
:1037D000FFE74FA24FA135487838FEF797FE4CA27D
:1037E00050A132486438FEF791FE49A251A12F48FA
:1037F0005038FEF78BFEFFF7A5FD00208DF80C007A
:103800008DF80D008DF80E008DF80F000A20FEF7E0
:1038100005FA03A8FDF736F89DF80F009DF80E1085
:10382000CDE900109DF80D309DF80C2045A11F48F2
:103830001438FEF76BFE1948027819A11B48FEF7F1
:1038400065FE474847A1026818483C38FEF75EFE0F
:1038500049484AA1026815482838FEF757FE4C48E7
:103860000078C82804D100204949087000F088FB7E
:1038700001214848FDF72EFE70B902214548FDF7A9
:1038800029FE48B90021084600F0F7FB0020034953
:103890000870C820FEF7C2F916E7000000000020FB
:1038A0002020434E543A20252D346400B5000020DA
:1038B000CC000020CD000020E10000206666666696
:1038C00066660A40000000000000B040202052332D
:1038D000373A20252E326656202000002020523311
:1038E000383A20252E326656202000002020504FE6
:1038F000543A20252E326656202000002020464CC7
:103900004153483A4E2F41202020202020202000E3
:103910004E2F410020205233373A2025732020209B
:103920002000000020205233383A20257320202028
:10393000200000002020504F543A202573202020E2
:10394000200000002020464C4153483A2530325890
:1039500025303258253032582530325800000000CA
:10396000DC00002020205233393A202564487A2098
:103970002020202000000000D4000020202052340D
:10398000303A202564487A202020202000000000C2
:10399000CE0000200004004810B53B48007820B15C
:1039A00001281FD002286DD153E001213748FDF7CF
:1039B0009AFD98B102213548FDF795FD70B10421BB
:1039C0003248FDF790FD48B101214FF09040FDF7DE
:1039D0008AFD18B100202C49087002E001202A4914
:1039E00008704FE001212948FDF77DFD30B9012025
:1039F0002749087002202449087029E00221234841
:103A0000FDF771FD28B90220214908701E49087090
:103A10001EE004211D48FDF766FD30B903201C4956
:103A2000087002201849087012E001214FF0904000
:103A3000FDF759FD30B904201549087002201249DC
:103A4000087005E0FF201249087000200E49087038
:103A500018E001210D48FDF746FD90B102210B4809
:103A6000FDF741FD68B104210848FDF73CFD40B178
:103A700001214FF09040FDF736FD10B100200249C2
:103A8000087000BF00BF10BDE20000200004004825
:103A9000E00000200CE00178074A916200BF00BFFF
:103AA00000BF0549C969C1F380110029F8D0401C45
:103AB00001780029EFD170470038014010B5FE4869
:103AC0000078FF287ED0FC48007801287BD10102D5
:103AD000FA48FDF711FD0421F948FDF711FD00BF7B
:103AE00000BF00BF0421F648FDF706FD4FF48061DA
:103AF000F248FDF701FD0421F148FDF701FD00BF8B
:103B000000BF00BF0421EE48FDF7F6FC4FF48051E2
:103B1000EA48FDF7F1FC0421E948FDF7F1FC00BF9C
:103B200000BF00BF0421E648FDF7E6FC4FF48041EA
:103B3000E248FDF7E1FC0421E148FDF7E1FC00BFAC
:103B400000BF00BF0421DE48FDF7D6FC4FF4007132
:103B5000DA48FDF7D5FC0421D948FDF7D1FC00BFB8
:103B600000BF00BF0421D648FDF7C6FC4FF400613A
:103B7000D248FDF7C5FC0421D148FDF7C1FC00BFC8
:103B800000BF00BF0421CE48FDF7B6FC4FF4005142
:103B9000CA48FDF7B5FC0421C948FDF7B1FC00BFD8
:103BA00000BF00BF0421C648FDF7A6FC4FF400414A
:103BB000C248FDF7A5FC0421C148FDF7A1FC00BFE8
:103BC00000BF01E0A6E104E000BF0421BC48FDF70E
:103BD00093FCB948007802287DD10102B748FDF76F
:103BE0008BFC0421B648FDF78BFC00BF00BF00BF73
:103BF0000421B348FDF780FC4FF40061AF48FDF7A6
:103C00007BFC0421AE48FDF77BFC00BF00BF00BF7A
:103C10000421AB48FDF770FC4FF40051A748FDF7B5
:103C20006BFC0421A648FDF76BFC00BF00BF00BF82
:103C30000421A348FDF760FC4FF400419F48FDF7C5
:103C40005BFC04219E48FDF75BFC00BF00BF00BF8A
:103C500004219B48FDF750FC4FF480719748FDF715
:103C60004FFC04219648FDF74BFC00BF00BF00BF8E
:103C700004219348FDF740FC4FF480618F48FDF725
:103C80003FFC04218E48FDF73BFC00BF00BF00BF96
:103C900004218B48FDF730FC4FF480518748FDF735
:103CA0002FFC04218648FDF72BFC00BF00BF00BF9E
:103CB00004218348FDF720FC4FF480417F48FDF745
:103CC0001FFC04217E48FDF71BFC00BF00BF00BFA6
:103CD00004217B4800E001E0FDF70EFC7648007807
:103CE00003287DD14FF400717448FDF705FC0421D1
:103CF0007348FDF705FC00BF00BF00BF04217048FA
:103D0000FDF7FAFB4FF400616C48FDF7F5FB042169
:103D10006B48FDF7F5FB00BF00BF00BF04216848FA
:103D2000FDF7EAFB4FF400516448FDF7E5FB042181
:103D30006348FDF7E5FB00BF00BF00BF04216048FA
:103D4000FDF7DAFB4FF400415C48FDF7D5FB042199
:103D50005B48FDF7D5FB00BF00BF00BF04215848FA
:103D6000FDF7CAFB4FF400715448FDF7C5FB042171
:103D70005348FDF7C5FB00BF00BF00BF04215048FA
:103D8000FDF7BAFB4FF400614C48FDF7B5FB042189
:103D90004B48FDF7B5FB00BF00BF00BF04214848FA
:103DA000FDF7AAFB4FF400514448FDF7A5FB0421A1
:103DB0004348FDF7A5FB00BF00BF00BF04214048FA
:103DC000FDF79AFB4FF400413C48FDF795FB0421B9
:103DD0003B48FDF795FB00BF00BF00BF042100E09A
:103DE00005E03748FDF788FB012036490870324866
:103DF000007804285FD181013048FDF781FB042160
:103E00002F48FDF77DFB00BF00BF00BF04212C48F9
:103E1000FDF772FB4FF480612848FDF771FB042128
:103E20002748FDF76DFB00BF00BF00BF04212448F9
:103E3000FDF762FB4FF480512048FDF761FB042140
:103E40001F48FDF75DFB00BF00BF00BF04211C48F9
:103E5000FDF752FB4FF480411848FDF751FB042158
:103E60001748FDF74DFB00BF00BF00BF04211448F9
:103E7000FDF742FB4FF400711048FDF741FB0421B0
:103E80000F48FDF73DFB00BF00BF00BF04210C48F9
:103E9000FDF732FB4FF400610848FDF731FB0421C8
:103EA0000748FDF72DFB00BF00BF00BF04210448F9
:103EB000FDF722FB08E02AE0E000002000080048AF
:103EC000000C0048E10000204FF400511248FDF7BB
:103ED00017FB04211148FDF713FB00BF00BF00BF13
:103EE00004210E48FDF708FB4FF400410A48FDF796
:103EF00007FB04210948FDF703FB00BF00BF00BF1B
:103F000004210648FDF7F8FA002005490870FF2053
:103F10000449087010BD000000080048000C00486B
:103F2000E1000020E0000020F8B500BF0B48006869
:103F3000044600BF0948001D0068054600BF074849
:103F40000830006806462B46224605A10B4800961D
:103F5000FEF7DCFA0948FFF79DFDF8BD9075FF1FDD
:103F6000244354313137455F4D34242530385825AA
:103F7000303858253038582400000000F000002068
:103F800010B54FF6FF70FCF7D3FE23490020FCF775
:103F9000FDFD214914311820FCF7F8FD1E49283198
:103FA0003020FCF7F3FD1C493C314820FCF7EEFDC6
:103FB000194950316020FCF7E9FD4FF47840FCF7D7
:103FC000B7FE154964317820FCF7E0FD4FF6FF702D
:103FD000FCF7AEFE104978319020FCF7D7FD0E4972
:103FE0008C31A820FCF7D2FD0B49A031C020FCF792
:103FF000CDFD4FF4FC60FCF79BFE0749A031C020CB
:10400000FCF7C4FD1F20FCF793FE0349B431D82010
:10401000FCF7BCFD10BD00000100002010B50446F7
:10402000FCF7C0FC5E20FCF77FFCFCF7EFFC2046B1
:10403000FCF77AFCFCF7EAFCFCF7CEFC10BD70B58F
:104040000446FCF7AFFCA020FCF76EFCFCF7DEFC9E
:104050002046FCF769FCFCF7D9FCFCF7A3FCA12087
:10406000FCF762FCFCF7D2FCFCF736FC0546FCF7DB
:1040700082FCFCF7B1FC284670BD70B505460C46C5
:10408000FCF790FCA020FCF74FFCFCF7BFFC284697
:10409000FCF74AFCFCF7BAFC2046FCF745FCFCF7B1
:1040A000B5FCFCF799FC70BD0100000002000000A7
:1040B0000400000006000000080000000A000000E4
:1040C0000C00000010000000200000004000000074
:1040D000800000000001000000000000040404044F
:1040E0003838000008000000080000080000080040
:1040F00000000800000000020406080A0C0E10145C
:104100000001020304050607080A081C3044586C25
:10411000000000000000000000000000000000009F
:10412000000000000000000000000000000000008F
:10413000000000000000000000000000000000007F
:1041400000008001800180018001800180018001E8
:104150008001800180018001800180010000000059
:10416000800180010000000000000000000000004D
:1041700000000000CC00CC00CC00CC00CC00CC0077
:10418000000000000000000000000000000000002F
:10419000000000000000000000000000000000001F
:1041A000000000000000000000000000600C600C37
:1041B000600C30063006FE1FFE1F3006380718035D
:1041C000FE1FFE1F180318038C018C018C010000D8
:1041D00000008000E003F80F9C0E8C1C8C188C00F3
:1041E0009800F801E007800E801C8C188C189C1831
:1041F000B80CF00FE0038000800000000000000019
:104200000000000000000E181B0C110C1106110616
:10421000110311039B018E01C038C06C60446044DF
:10422000304430441844186C0C3800000000000082
:104230000000E001F0033807180618063003F0010B
:10424000F000F8009C310E33061E061C061C063FCB
:10425000FC73F021000000000000000000000000DE
:10426000000000000C000C000C000C000C000C0006
:10427000000000000000000000000000000000003E
:10428000000000000000000000000000000000002E
:104290000000000200038001C000C0006000600058
:1042A000300030003000300030003000300030008E
:1042B00060006000C000C000800100030002000038
:1042C000000020006000C0008001800100030003A6
:1042D00000060006000600060006000600060006AE
:1042E0000003000380018001C00060002000000086
:1042F000000000000000000000000000C000C0003E
:10430000D806F807E001300338070000000000007D
:10431000000000000000000000000000000000009D
:10432000000000000000000000000000800180018B
:10433000800180018001FC3FFC3F80018001800101
:10434000800180010000000000000000000000006B
:10435000000000000000000000000000000000005D
:10436000000000000000000000000000000000004D
:1043700000008001800100010001800000000000B9
:10438000000000000000000000000000000000002D
:104390000000000000000000E007E007000000004F
:1043A000000000000000000000000000000000000D
:1043B00000000000000000000000000000000000FD
:1043C00000000000000000000000000000000000ED
:1043D0000000C000C000000000000000000000005D
:1043E0000000000C000C000600060006000300039D
:1043F00000038003800180018001C000C000C00074
:1044000060006000000000000000000000000000EC
:104410000000E003F007380E180C0C180C180C18EC
:104420000C180C180C180C180C180C18180C380E4A
:10443000F007E003000000000000000000000000A2
:10444000000000018001C001F00198018801800195
:104450008001800180018001800180018001800154
:10446000800180010000000000000000000000004A
:104470000000E003F80F180C0C180C1800180018B6
:10448000000C000600038001C0006000300018002E
:10449000FC1FFC1F000000000000000000000000E6
:1044A0000000E001F807180E0C0C0C0C000C0006C4
:1044B000C003C007000C001800180C180C18180CCA
:1044C000F807E0030000000000000000000000000A
:1044D0000000000C000E000F000F800DC00C600CDF
:1044E000600C300C180C0C0CFC3FFC3F000C000C5A
:1044F000000C000C000000000000000000000000A4
:104500000000F80FF80F180018000C00EC03FC076F
:104510001C0E001C0018001800180C181C0C180E9B
:10452000F807E003000000000000000000000000A9
:104530000000C007F00F381C181818000C00CC033E
:10454000EC0F3C0E1C1C0C180C180C18181C380E08
:10455000F007E00300000000000000000000000081
:104560000000FC1FFC1F000C000600060003800377
:104570008001C001C000E0006000600070003000F9
:1045800030003000000000000000000000000000CB
:104590000000E003F007380E180C180C180C380651
:1045A000F007F007180C0C180C180C180C18380C25
:1045B000F80FE00300000000000000000000000011
:1045C0000000E003F007380E1C0C0C180C180C1837
:1045D0001C1C381EF81BE0190018000C000C1C0EE7
:1045E000F807F001000000000000000000000000DB
:1045F00000000000000000000000000080018001B9
:1046000000000000000000000000000000000000AA
:104610008001800100000000000000000000000098
:104620000000000000000000000000008001800188
:10463000000000000000000000000000000000007A
:1046400080018001000100018000000000000000E6
:10465000000000000000000000000000000000005A
:104660000010001C800FE003F8001800F800E003C1
:10467000800F001C0010000000000000000000007F
:10468000000000000000000000000000000000002A
:10469000F81F000000000000F81F000000000000EC
:1046A000000000000000000000000000000000000A
:1046B00000000000000000000000000000000000FA
:1046C00008003800F001C007001F0018001FC007D5
:1046D000F0013800080000000000000000000000A9
:1046E0000000E003F80F180C0C180C180018000C50
:1046F000000600038001C000C000C00000000000F0
:10470000C000C00000000000000000000000000029
:1047100000000000E00718180420C229224A1144B2
:1047200009440944094409221113E20C02400420FF
:104730001818E00700000000000000000000000062
:10474000000080038003C006C006C006600C600C39
:10475000301830183018F83FF83F1C700C600C60AF
:1047600006C006C0000000000000000000000000BD
:104770000000FC03FC0F0C0C0C180C180C180C0C93
:10478000FC07FC0F0C180C300C300C300C300C18E3
:10479000FC1FFC07000000000000000000000000FB
:1047A0000000C007F01F38381C300C70066006008F
:1047B0000600060006000600060006600C701C30AD
:1047C000F01FE007000000000000000000000000F3
:1047D0000000FE03FE0F060E06180618063006300F
:1047E0000630063006300630063006180618060E6B
:1047F000FE0FFE03000000000000000000000000AB
:104800000000FC3FFC3F0C000C000C000C000C00F6
:10481000FC1FFC1F0C000C000C000C000C000C001A
:10482000FC3FFC3F00000000000000000000000012
:104830000000F83FF83F1800180018001800180092
:10484000F81FF81F180018001800180018001800AA
:104850001800180000000000000000000000000028
:104860000000E00FF83F3C780E6006E007C0030050
:10487000030003FE03FE03C007C006C00EC03CF0E9
:10488000F83FE00F00000000000000000000000002
:1048900000000C300C300C300C300C300C300C3074
:1048A000FC3FFC3F0C300C300C300C300C300C302A
:1048B0000C300C3000000000000000000000000080
:1048C0000000800180018001800180018001800161
:1048D00080018001800180018001800180018001D0
:1048E00080018001000000000000000000000000C6
:1048F000000000060006000600060006000600068E
:10490000000600060006000600061806180638070E
:10491000F003E001000000000000000000000000C3
:10492000000006300618060C060606038601C600BF
:1049300066007600DE008E0106030606060C0618E9
:1049400006300660000000000000000000000000CB
:1049500000001800180018001800180018001800AF
:104960001800180018001800180018001800180087
:10497000F81FF81F00000000000000000000000009
:1049800000000EE01EF01EF01EF036D836D836D8E5
:1049900036D866CC66CC66CCC6C6C6C6C6C6C6C643
:1049A00086C386C300000000000000000000000075
:1049B00000000C301C303C303C306C306C30CC3063
:1049C000CC308C310C330C330C360C360C3C0C3C9C
:1049D0000C380C3000000000000000000000000057
:1049E0000000E007F81F1C380E70066003C003C00B
:1049F00003C003C003C003C003C006600E701C38B0
:104A0000F81FE007000000000000000000000000A8
:104A10000000FC0FFC1F0C380C300C300C300C303C
:104A20000C18FC1FFC070C000C000C000C000C0008
:104A30000C000C000000000000000000000000005E
:104A40000000E007F81F1C380E70066003E003C08A
:104A500003C003C003C003C007E006630E3F1C3C55
:104A6000F83FE0F700C00000000000000000000078
:104A70000000FE0FFE1F06380630063006300638EE
:104A8000FE1FFE0706030606060C0618061806306B
:104A9000063006600000000000000000000000007A
:104AA0000000E003F80F1C0C0C180C180C001C0084
:104AB000F803E00F001E0038063006300E301C1CD4
:104AC000F80FE007000000000000000000000000F8
:104AD0000000FE7FFE7F8001800180018001800157
:104AE00080018001800180018001800180018001BE
:104AF00080018001000000000000000000000000B4
:104B000000000C300C300C300C300C300C300C3001
:104B10000C300C300C300C300C300C300C301818C1
:104B2000F81FE00700000000000000000000000087
:104B3000000003600630063006300C180C180C1804
:104B4000180C180C380E300630067007600360032E
:104B5000C001C001000000000000000000000000D3
:104B600000000360C361C361C361663366336633AB
:104B70006633663366336C1B6C1B6C1B2C1A3C1E35
:104B8000380E380E00000000000000000000000099
:104B900000000FE00C7018303018700C600EC00769
:104BA00080038003C003E006700C301C18180C3022
:104BB0000E6007E0000000000000000000000000A0
:104BC000000003C006600C301C383818300C60063A
:104BD000E007C00380018001800180018001800125
:104BE00080018001000000000000000000000000C3
:104BF0000000FC7FFC7F006000300018000C000605
:104C000000038001C0006000300018000C000600A6
:104C1000FE7FFE7F0000000000000000000000009A
:104C20000000E003E00360006000600060006000DE
:104C30006000600060006000600060006000600074
:104C400060006000600060006000E003E0030000BE
:104C5000000030003000600060006000C000C00054
:104C6000C000C00180018001800100030003000337
:104C70000006000600000000000000000000000028
:104C80000000E003E003000300030003000300034F
:104C900000030003000300030003000300030003FC
:104CA00000030003000300030003E003E00300002F
:104CB00000000000C001C001600360036003300613
:104CC0003006180C180C0000000000000000000066
:104CD00000000000000000000000000000000000D4
:104CE00000000000000000000000000000000000C4
:104CF00000000000000000000000000000000000B4
:104D00000000FFFFFFFF00000000000000000000A7
:104D100000000C000C000C000C000C000C0000004B
:104D20000000000000000000000000000000000083
:104D30000000000000000000000000000000000073
:104D4000000000000000000000000000F003F80771
:104D50001C0C0C0C000FF00FF80C0C0C0C0C1C0FA6
:104D6000F80FF01800000000000000000000000034
:104D7000000018001800180018001800D803F80FD9
:104D8000380C181818181818181818181818380C7B
:104D9000F80FD80300000000000000000000000031
:104DA000000000000000000000000000C003F00749
:104DB000300E180C1800180018001800180C300ECF
:104DC000F007C00300000000000000000000000029
:104DD000000000180018001800180018C01BF01F71
:104DE000301C181818181818181818181818301C0B
:104DF000F01FC01B000000000000000000000000C9
:104E0000000000000000000000000000C003F00FE0
:104E1000300C1818F81FF81F180018003818301C2C
:104E2000F00FC007000000000000000000000000BC
:104E30000000800FC00FC000C000C000F007F007E6
:104E4000C000C000C000C000C000C000C000C00062
:104E5000C000C000000000000000000000000000D2
:104E6000000000000000000000000000E00DF80F4E
:104E7000180E0C0C0C0C0C0C0C0C0C0C0C0C180E56
:104E8000F80FE00D000C0C0C1C06F807F0010000F8
:104E9000000018001800180018001800D807F80FB4
:104EA000381C18181818181818181818181818185E
:104EB0001818181800000000000000000000000092
:104EC0000000C000C000000000000000C000C000E2
:104ED000C000C000C000C000C000C000C000C000D2
:104EE000C000C00000000000000000000000000042
:104EF0000000C000C000000000000000C000C000B2
:104F0000C000C000C000C000C000C000C000C000A1
:104F1000C000C000C000C000C000F8007800000061
:104F200000000C000C000C000C000C000C0C0C061B
:104F30000C038C01CC006C00FC009C018C030C0366
:104F40000C060C0C00000000000000000000000037
:104F50000000C000C000C000C000C000C000C00011
:104F6000C000C000C000C000C000C000C000C00041
:104F7000C000C000000000000000000000000000B1
:104F80000000000000000000000000007C3CFF7EEC
:104F9000C7E383C183C183C183C183C183C183C18B
:104FA00083C183C100000000000000000000000079
:104FB0000000000000000000000000009807F80F4B
:104FC000381C18181818181818181818181818183D
:104FD0001818181800000000000000000000000071
:104FE000000000000000000000000000C003F00FFF
:104FF000300C181818181818181818181818300C19
:10500000F00FC003000000000000000000000000DE
:10501000000000000000000000000000D803F80FAE
:10502000380C181818181818181818181818380CD8
:10503000F80FD80318001800180018001800000016
:10504000000000000000000000000000C01BF01F76
:10505000301C181818181818181818181818301C98
:10506000F01FC01B001800180018001800180000DE
:10507000000000000000000000000000B007F00386
:105080007000300030003000300030003000300060
:1050900030003000000000000000000000000000B0
:1050A000000000000000000000000000E003F0032A
:1050B000380E180C3800F003C007000C180C380E1E
:1050C000F007E00300000000000000000000000006
:1050D000000000008000C000C000C000F007F00722
:1050E000C000C000C000C000C000C000C000C000C0
:1050F000C007800700000000000000000000000062
:10510000000000000000000000000000181818183F
:105110001818181818181818181818181818381CEB
:10512000F01FE01900000000000000000000000077
:105130000000000000000000000000000C18180C27
:10514000180C180C3006300630066003600360034C
:10515000C001C001000000000000000000000000CD
:10516000000000000000000000000000C141C1413B
:10517000C3616363636363633636363636361C1C3D
:105180001C1C1C1C000000000000000000000000AF
:105190000000000000000000000000001C38381C67
:1051A000300C600660036003600360036006300C2F
:1051B000381C1C3800000000000000000000000047
:1051C000000000000000000000000000183030184F
:1051D00030187018600C600CE00CC006C00680032C
:1051E0008003800380018001C001F0007000000096
:1051F000000000000000000000000000FC1FFC1F79
:10520000000C000600038001C000600030001800A0
:10521000FC1FFC1F00000000000000000000000058
:10522000000000038001C000C000C000C000C0003A
:10523000C00060006000300060004000C000C0009E
:10524000C000C000C000C0008001000300000000DA
:1052500000008001800180018001800180018001C7
:105260008001800180018001800180018001800136
:1052700080018001800180018001800180010000A7
:1052800000006000C000C001800180018001800139
:10529000800100030003000600030001800180017B
:1052A0008001800180018001C000600000000000DA
:1052B00000000000000000000000000000000000EE
:1052C000F010F81F080F00000000000000000000B0
:1052D00000000000000000000000000000000000CE
:1052E00001000000020000000400000006000000B1
:1052F000080000000A0000000C0000001000000080
:1053000020000000400000008000000000010000BC
:105310000000000004040404383800000800000005
:10532000080000080000080000000800000000025B
:105330000406080A0C0E10140001020304050607F7
:10534000080A081C3044586C0100000002000000EC
:105350000400000006000000080000000A00000031
:105360000C000000100000002000000040000000C1
:1053700080000000000100000000000000000000AC
:1053800001020304060708090000000001020304EB
:10539000B053000800000020F0000000882500083D
:1053A000A0540008F0000020C80400009825000860
:1053B000002020202020202020202020202020200D
:1053C000202020202020202A2A2043543131374514
:1053D0002D4D34202A2A202020202020202020206B
:1053E00020202020202020202020202020202020BD
:1053F00020202020202020202020202020202020AD
:10540000202020202020202020202020202020209C
:10541000202020202020202020202020202020208C
:10542000202020202020202020202020202020207C
:10543000202020202020202020202020202020206C
:10544000202020202020202020202020202020205C
:10545000202020202020202020202020202020204C
:10546000202020202020202020202020202020203C
:10547000202020202020202020000000000000000C
:10548000000000000000000000000000000000001C
:10549000FF0000000000FFFF000000000024F400F7
:04000005080001D915
:00000001FF
