:020000040800F2
:10000000C0050020ED010008A1190008F90800084A
:100010009D19000879070008113C00080000000045
:10002000000000000000000000000000B1390008DE
:100030004508000800000000A5190008B5390008AF
:10004000070200080702000807020008070200086C
:10005000070200080702000807020008070200085C
:10006000070200080702000807020008070200084C
:10007000070200080702000807020008070200083C
:10008000070200080000000007020008070200083D
:10009000070200080702000807020008070200081C
:1000A000070200080702000807020008070200080C
:1000B000853B0008C93B000807020008070200084A
:1000C00007020008070200080702000807020008EC
:1000D00007020008070200080702000807020008DC
:1000E00007020008070200080702000807020008CC
:1000F00007020008070200080702000800000000CD
:1001000000000000070200080000000007020008CD
:1001100007020008000000000702000807020008AC
:10012000070200080702000807020008070200088B
:10013000070200080000000000000000070200089D
:10014000070200080702000800000000000000008D
:10015000000000000000000000000000000000009F
:10016000000000000000000000000000070200087E
:10017000070200080000000000000000000000006E
:10018000000000000702000800000000000000005E
:10019000000000000000000000000000000000005F
:1001A000000000000000000007020008070200082D
:1001B000070200080702000807020008000000000C
:1001C000000000000702000800000000000000001E
:1001D0000702000807020008DFF80CD000F082FADE
:1001E0000048004799440008C005002006488047A1
:1001F00006480047FEE7FEE7FEE7FEE7FEE7FEE70C
:10020000FEE7FEE7FEE7FEE7693B0008D9010008CC
:100210002DE9FE4F81EA030404F0004421F000417F
:1002200000944FF0000B23F0004350EA01045ED02D
:1002300052EA03045BD0C3F30A54C1F30A552C44B9
:10024000A4F2F3340194A0FB0254C1F3130141F46E
:100250008011C3F3130343F4801301FB024400FB3A
:10026000034E840A970A44EA815447EA8357A4FB61
:10027000076802958D0A05FB07854FEA932C04FB5E
:100280000C542705029D4FEA065847EA1637B5EB8E
:1002900008056EEB070C870E920E47EA811742EABB
:1002A0008312A7FB0201B6EB0B0164EB00042B0DDC
:1002B00043EA0C335E1844EB1C50DA465146E7FB28
:1002C0000201C5F313044FEA0B3343EA14534FEA18
:1002D0000432019C43EA0603A4F10C040294009C3E
:1002E000CDE900B400F069F803B0BDE8F08F00205C
:1002F0000146F9E70EB540F2334102910021CDE904
:1003000000110A460B4600F058F803B000BD30B5A6
:100310000B46014600202022012409E021FA02F5C3
:100320009D4205D303FA02F5491B04FA02F528445D
:10033000151EA2F10102F1DC30BD2DE9F05F05468A
:10034000002092469B4688460646814640241BE094
:10035000284641464746224600F0EBF953465A46A6
:10036000C01A914110D311461846224600F0D2F926
:100370002D1A67EB01084F4622460120002100F0AC
:10038000C9F917EB00094E41201EA4F10104DFDC7E
:10039000484631462A464346BDE8F09F10B5141E34
:1003A00073F1000408DA401C41F1000192185B412E
:1003B0001A4301D120F0010010BD2DE9F04D924605
:1003C0009B4611B1B1FA81F202E0B0FA80F220321C
:1003D000904600F09FF904460F4640EA0A0041EAC1
:1003E0000B0153465A46084313D0114653EA010005
:1003F00019D0C8F14002504600F09BF905460E4660
:1004000050465946424600F085F9084305D0012080
:1004100004E020463946BDE8F08D0020054346EA59
:10042000E0762C4337430A986305E40AA0EB080002
:100430000022FD0A44EA47540A3002D50020014652
:10044000E9E7010510196941DDE90845001969412D
:10045000BDE8F04DA2E72DE9FE4F804681EA03009A
:10046000C00F0C46009021F0004123F00045B8EB8E
:100470000200A94105D24046214690461C460B4643
:10048000024623F00040104347D0270DC7F30A006F
:10049000C3F30A510290401A019040286BDAC3F36B
:1004A000130040F4801B0098924620B10023D2EB49
:1004B000030A63EB0B0B01985946C0F1400250460A
:1004C00000F028F906460D4650465946019A00F0BC
:1004D00040F910EB08006141002487EA115284EAD8
:1004E000E7731A4340D0009A62B3019A012A4FEA97
:1004F000075215DC001B61EB02014FF0004202EADB
:100500000752CDE90042001C41F5801132462B46CE
:10051000FFF753FF03B0BDE8F08F40462146F9E7EF
:10052000001B61EB0201001C41F5801300185B41C8
:100530002018A2F5001747EB030140EAD570B61961
:100540006D4111E06D084FEA360645EAC0754FEA85
:100550000752001B61EB0201001C41F580114908A4
:100560004FEA30000019514132462B4603B0BDE836
:10057000F04FFFF713BF0098012240000023D0EB9B
:10058000020263EBE073009821464FEAE074B8EB97
:10059000000061EB0401E9E783F000435BE781F0D1
:1005A000004158E72DE9F04D81EA030404F0004BC7
:1005B00021F0004514464FF0000A23F0004150EAB4
:1005C000050220D054EA01021DD0C5F30A570246A5
:1005D000C5F31303C1F31300C1F30A5640F48015A9
:1005E00043F48013A7EB0608101BD64608F2FD382B
:1005F00073EB050002D308F1010801E092185B419A
:10060000B8F1000F03DA00200146BDE8F08D0020AC
:100610004FF48011064684460EE0171B73EB050766
:1006200005D3121B63EB050306434CEA010C490892
:100630004FEA300092185B4150EA0107EDD152EACF
:10064000030012D082EA040083EA0501084305D0C2
:10065000101BAB4106D20122002306E000224FF01E
:10066000004302E06FF0010253101AEB06004CEB5E
:10067000085110EB0A0041EB0B01BDE8F04DFFF70C
:100680008DBEC1F30A52C1F3130140F2FF3341F4AE
:1006900080119A4202DA00200146704740F233434B
:1006A0009A42A2F2334202DC524200F042B800F019
:1006B00031B8000030B5041E71F1000404DB4FF0C6
:1006C0000044404264EB0101141E73F1000405DB99
:1006D0001C464FF00043524263EB0403994208BFAB
:1006E000904230BD1CB5094800900948019005466C
:1006F000009C06E0E06840F0010394E8070098479A
:100700001034AC42F6D3FFF76BFD0000086B000815
:10071000286B0008202A04DB203A00FA02F10020AE
:1007200070479140C2F1200320FA03F3194390402F
:100730007047202A04DB203A21FA02F0002170479A
:1007400021FA02F3D040C2F1200291400843194639
:100750007047202A06DBCB17203A41FA02F043EA21
:10076000E07306E041FA02F3D040C2F1200291406A
:100770000843194670470000FEE700002DE9F041EC
:1007800090B0002641F24C00CDE90D66CDE90B6634
:10079000CDE90966CDE90766CDE90566CDE90366D1
:1007A000CDE90166C4F20200416901AD41F4804126
:1007B0004161416943F6000401F480410F910F99B2
:1007C00001684FF0010841F001010160006807274E
:1007D00000F001000F900F984FF40070019002207C
:1007E000CDE902064FF090402946C4F20104049678
:1007F000CDF81480069700F063FD4FF48060CDE9DA
:1008000001064FF0904029460396CDE9058700F098
:1008100057FD4FF41650CDE9080608200C9007A9A3
:1008200020460796CDE90A660E9601F00DF820687D
:1008300040F00100206000BFE0698002FCD510B0EC
:10084000BDE8F0817047000080B540F2184C43F6D7
:100850000802C4F6000CC4F200024FF48051CCF838
:10086000101000BF11688907FCD54B21117100BF22
:100870001168C907FCD0516811688907FCD50021AF
:10088000117100BF1168C907FCD051681168890750
:10089000FCD50021117100BF1168C907FCD0516857
:1008A00011688907FCD50021117100BF1168C907C3
:1008B000FCD0516811688907FCD50021117100BF77
:1008C0001168C907FCD051684FF0000E002100BF2D
:1008D00013689B07FCD582F804E000BF1368DB07B0
:1008E000FCD05368435401310829F1D14FF48050B2
:1008F000CCF8000080BD0000FEE70000F0B587B036
:10090000002040F218460690049002908020C4F621
:1009100000060190012005900220A6F11805039021
:1009200001A9284600F0CCFC306840F0400030605F
:10093000052000BF56F8081C09061DD50138010422
:10094000F8D10020CDE90500022080270124039082
:1009500001A9284601970294049400F0B1FC306983
:1009600040F040003061306940F080003061306814
:1009700040F0400030600FE0802000240190012012
:10098000CDE90544029004900220039001A9284675
:1009900000F096FC10364027306840EA07012046F8
:1009A000316007B0F0BD000040F21841C4F600010C
:1009B0000A6942F400720A610A6942F480720A61AB
:1009C0000A6842F020020A602022C1F8FC230A696A
:1009D00042F020020A6100BF00BF00BF0A6842F077
:1009E00020020A600A6842F480720A600022C1F89C
:1009F000FC230B6943F020030B6100BF00BF00BF65
:100A00000B6843F020030B600B6843F480730B60AA
:100A10000B6943F400730B610B6943F480730B6142
:100A20000B6843F020030B602123C1F8FC330B69F2
:100A300043F020030B6100BF00BF00BF0B6843F011
:100A400020030B600B6843F480730B60C1F8FC2338
:100A50000A6942F020020A6100BF00BF00BF0A68B5
:100A600042F020020A600A6842F480720A600A6951
:100A700042F400720A610A6942F480720A610A68EB
:100A800042F020020A602222C1F8FC230A6942F0E7
:100A900020020A6100BF00BF00BF0A6842F02002C6
:100AA0000A600A6842F480720A6000BF00BF00BF9B
:100AB0000A6842F400720A604FF496320B69013AF8
:100AC00043F400730B610B6843F480730B600B6895
:100AD00043F020030B60C1F8FC030B6943F02003D3
:100AE0000B6100BF00BF00BF0B6843F020030B6029
:100AF0000B6843F480730B6000BF00BF00BF0B683E
:100B000043F400730B60D9D1704700000A78002AC3
:100B100008BF70472DE9F04145F6EC0804464D1C2E
:100B2000002740F23F16C0F6000800BFA2F12000E7
:100B3000C1B2490051FA80F008EB0012B1B2204670
:100B400000F00AF8EA5D22B1103E132F07F1010709
:100B5000ECD3BDE8F04170472DE9F04740F218436F
:100B6000C4F600031F694FF0200C47F400771F61A3
:100B70001F694FF0210E47F480771F611F6840F214
:100B8000000947F020071F60C3F8FCC31F6940F24B
:100B9000D80A47F020071F6100BF00BF00BF1F68D1
:100BA0004FF0220847F020071F601F68C2F20009BB
:100BB00047F480771F60C3F8FC031F69C2F2000A84
:100BC00047F020071F6100BF00BF00BF1F6847F04C
:100BD00020071F601F6847F480771F601F6947F474
:100BE00000771F611F6947F480771F611F6847F016
:100BF00020071F60C3F8FCE31C6944F020041C615B
:100C000000BF00BF00BF1C6844F020041C601C68CB
:100C100044F480741C60C3F8FC131C6944F0200485
:100C20001C6100BF00BF00BF1C6844F020041C60B2
:100C30001C6844F480741C60002400BF1D6945F4E6
:100C400000751D611D6945F480751D611D6845F0C5
:100C500020051D60C3F8FC831D6945F020051D615A
:100C600000BF00BF00BF1D6845F020051D601D6866
:100C700045F480751D6000BF00BF00BF1D6845F4CE
:100C800000751D60002500BF32F81460EE40F607C5
:100C9000564608BF4E4636881F69013547F400772F
:100CA0001F611F68102D47F480771F601F6847F091
:100CB00020071F60C3F8FC631E6946F020061E6112
:100CC00000BF00BF00BF1E6846F020061E601E6801
:100CD00046F480761E6000BF00BF00BF1E6846F469
:100CE00000761E60D0D11D69013045F400751D618C
:100CF0001D69013445F480751D611D68182C45F08F
:100D000020051D60C3F8FCC31D6945F020051D6169
:100D100000BF00BF00BF1D6845F020051D601D68B5
:100D200045F480751D60C5B2C3F8FC531D6945F0DC
:100D300020051D6100BF00BF00BF1D6845F02005F4
:100D40001D601D6845F480751D601D6945F40075C2
:100D50001D611D6945F480751D611D6845F0200504
:100D60001D60C3F8FCE31D6945F020051D6100BF4F
:100D700000BF00BF1D6845F020051D601D6845F4DB
:100D800080751D60C3F8FC131D6945F020051D61C9
:100D900000BF00BF00BF1D6845F020051D601D6835
:100DA00045F480751D6008BFBDE8F08746E7000088
:100DB0002DE9F04F8DB0002641F24C00CDE90566DB
:100DC000CDE90366CDE90166C4F20200016840F294
:100DD000184541F0010101600168C4F6000501F009
:100DE000010107910799016801AC41F0020101601E
:100DF000016840F6140901F00201079107990168A2
:100E0000C4F6000941F0040101600068214600F0C9
:100E10000400079007984FF4487001900120029059
:100E2000A5F118000127CDE90366059600F048FA00
:100E30004FF48070CDE901074FF090402146012723
:100E4000CDE90366059600F03BFA4FF6FF7005F515
:100E50007A7407904FF0030807A920460C96CDE955
:100E60000A664FF6FF7B0897CDF8248000F028FA39
:100E70004FF6004ACFF6FF7A55F80A0007A940F46A
:100E8000807045F80A0028684FF6FF7740F4087034
:100E90002860286940F400702861286940F4807057
:100EA0002861286840F020002860C9F8006028699F
:100EB00040F02000286100BF00BF00BF286840F05C
:100EC00020002860286840F48070286020460C9636
:100ED000CDE90A66CDE907B6CDF8248000F0F0F937
:100EE0004FF6104BCFF6FF7B55F80B0007A940F4E7
:100EF000807045F80B0000BF00BF00BFD5F8F89325
:100F000055F80A0040F4807045F80A0001200C965C
:100F1000CDE90A66CDE908082046079700F0D0F928
:100F2000286848F2302140F40070286040F2AC108C
:100F3000C2F20000A0F800900088884202D100F0C0
:100F400033FD01E001F0A4FA2869002640F40070A6
:100F5000286128694FF6FF7840F48070286128687E
:100F60004FF0030940F02000286040F61400C4F65A
:100F700000000660286907A940F02000286100BF32
:100F800000BF00BF286840F020002860286840F4B7
:100F90008070286020460C96CDE90A660896CDF848
:100FA0001C80CDF8249000F08BF955F80B0007A9B0
:100FB00040F4807045F80B0000BF00BF00BFD5F8BB
:100FC000F87355F80A0040F4807045F80A000120D3
:100FD0000C96CDE90A66CDE908092046CDF81C80BB
:100FE00000F06EF9286840F40070286040F2AC1000
:100FF000C2F2000007800DB0BDE8F08F81B0ADF8FF
:101000000200BDF8020040F20001C2F200010880B7
:1010100001B0704781B0ADF80200BDF8020040F2A7
:10102000D801C2F20001088001B070470822C5F261
:1010300000021368D2F800211A43D2071CBF012016
:10104000704780B5D1E900C3826843F2E00ECFF665
:10105000C07E0EEA020E43B1D1E90212114341EA09
:101060000E0141EA0C01194301E04EEA0C018160D6
:10107000002080BD81B0002100918268D20753D04A
:10108000C1684FF6C07C21F47E61C1608168C7F6FB
:10109000FF7C490708D58168C90605D4816801EA43
:1010A0000C0141F010018160C16C21F4FE71C1643A
:1010B0008168090708D58168890605D4816801EA35
:1010C0000C0141F0200181604FF47861009100BF74
:1010D000816883685B0943EA1111C90707D0009949
:1010E0000139009100990029F2D1012100E000218D
:1010F000C3684FF6FF72C7F6DF721A4002F500129E
:10110000C260826802EA0C0242F0020282604FF47E
:10111000786200928268920706D5009A013A00929E
:10112000009A002AF6D101218268920601D001219D
:1011300087E0426840F2FF739A434260026840F6DB
:10114000200C1A43026082684FF6000322F0A0428E
:1011500082608268CFF2FE1342F000528260C26861
:10116000CEF2820C02F0040202F10042C260026977
:101170001A400261426948F200036FF3DD024261E6
:101180008269CFF2000302F078428261026A1A405B
:1011900042F0706242F47F020262426A0CF1100374
:1011A00042F47F0222F0FF024262826A42F47F022E
:1011B00022F0FF028262026B1A400263426B40F22D
:1011C000DF7302EA0C024263826B02EA0C02826362
:1011D000C26B9A43C263C26C44F20003C0F2104374
:1011E0001A40C264026E4FF20003C0F2FF031A40BD
:1011F0000266426E1A404266826E1A408266C26E73
:101200001A40C266D0F8A02043F6FF736FF31202B3
:10121000C0F8A020D0F8A4206FF31202C0F8A420D8
:10122000D0F8B0206FF31202C0F8B020D0F8B4208C
:1012300022F07F12C0F8B420D0F8C0209A43C0F842
:10124000C020084601B070478268D2071CBF012049
:101250007047C2684CF2180322EA030CD1E900324D
:10126000896843EA0C031A431143C16000207047A8
:101270008268D2071CBF01207047B0B5D1E900C217
:10128000C3684CF21C0ECFF6F07E0EEA030E32B1AC
:1012900001F1080538CD496923432B4303E0D1E927
:1012A000033449692343194341EA0C0141EA0E0121
:1012B000C160016B21F00F01114301630020B0BD3B
:1012C0002DE9F0470C6894FAA4F2B2FA82F234FAEB
:1012D00002F34FD04FF001084FF0030C4FF00F0E08
:1012E00013E093FAA3F3B3FA83F34C69456A9B00C6
:1012F0000EFA03F6B54304FA03F32B43436200BF2F
:101300000C68013234FA02F334D008FA02F314EA1A
:10131000030AF5D09AFAAAF3B3FA83F94E6805687E
:101320004FEA49070CFA07F4E34325EA040406FAF6
:1013300007F52C43751E012D046005D88C6885685F
:10134000BC401D402C4384600C69C568BC402B40E8
:101350002343022EC360D3D15FEA1A23C1D14B6964
:10136000046A4FEA89050EFA05F6B443AB402343FD
:101370000362C5E74A68013A012A05D8C96842688C
:101380006143A243114341600020BDE8F0870000A3
:1013900044F6D351C1F26201A0FB01014FF0FF30CE
:1013A00000EB91104EF21001CEF2000148600020D7
:1013B0008860052008607047C0281ED141F20C01EA
:1013C000C4F20201C86FC0F38110032821D00228A3
:1013D00015D0012824D151F8040C00F00C0242F27F
:1013E00000400C2AC0F2F4002BD0082A18BF704726
:1013F00043F20060C0F26E1070470020704751F851
:101400000C0C42F200414005C0F2F40101EAE07028
:101410007047D1F884004FF4004101EA80307047F2
:1014200051F8040C00F00C0242F200400C2AC0F209
:10143000F40022D0082A3BD143F20060C0F26E10C3
:1014400036E00A6802F00302032A04BF43F2006098
:10145000C0F26E100A680B68C2F306225043C3F351
:10146000031209680132B0FBF2F0C1F341610222BC
:1014700002EB4101B0FBF1F070470A6802F0030291
:10148000032A04BF43F20060C0F26E100A680B68C2
:10149000C2F306225043C3F303120B680132B0FBC0
:1014A000F2F0C3F34162022303EB4202B0FBF2F01D
:1014B00051F8042C45F6D403C2F30312C0F600031E
:1014C0009A5C51F8041C45F6E403C1F30221C0F60E
:1014D0000003595C02F01F02D04001F01F01C84018
:1014E00070470000302857D00C282CD003281CBF90
:1014F0000020704741F20C01C4F20201C86F4FF4A2
:10150000404262F39F00B0F1031F4ED00222C0F2AE
:101510000302904236D00122C0F2030290421FD053
:1015200051F8040C00F00C0242F200400C2AC0F208
:10153000F40000F09980082A40F0B18043F2006086
:10154000C0F26E10ABE041F20C01C4F20201C86FB0
:10155000C0F38100032828D0022813D001282BD102
:1015600051F8040C00F00C0242F200400C2AC0F2C8
:10157000F40032D0082A18BF704743F20060C0F26E
:101580006E10704751F80C0C42F200414005C0F259
:10159000F40101EAE070704741F20C01C4F202016B
:1015A000C86FC0F301100328D6D1D1F884004FF4DE
:1015B000004101EA8030704751F8040C00F00C0241
:1015C00042F200400C2AC0F2F40022D0082A3BD19B
:1015D00043F20060C0F26E1036E00A6802F00302C7
:1015E000032A04BF43F20060C0F26E100A680B6861
:1015F000C2F306225043C3F3031209680132B0FB61
:10160000F2F0C1F34161022202EB4101B0FBF1F0C3
:1016100070470A6802F00302032A04BF43F2006025
:10162000C0F26E100A680B68C2F306225043C3F37F
:1016300003120B680132B0FBF2F0C3F341620223E4
:1016400003EB4202B0FBF2F051F8042C45F6D40350
:10165000C2F30312C0F600039A5C51F8041C02F0B6
:101660001F02C1F3022129E00A6802F00302032AE3
:1016700004BF43F20060C0F26E100A680B68C2F348
:1016800006225043C3F303120B680132B0FBF2F0A1
:10169000C3F34162022303EB4202B0FBF2F051F8C4
:1016A000042C45F6D403C2F30312C0F600039A5C7F
:1016B00051F8041C02F01F02C1F3C22145F6E403F5
:1016C000C0F60003595CD04001F01F01C8407047CC
:1016D0000246006840062CD42DE9F04710684FF60A
:1016E000BF73D1E9009820EA030CD1E902EA01F1C5
:1016F00010074CEA0904E0CF44EA080444EA0A046B
:10170000D1E9070325432F43384330431843106082
:10171000506840F60477B8434EEA16473843B3F5AD
:10172000005F5060BDE8F04704BF888C1061002066
:1017300000E00120D16921F40061D161704700000F
:1017400040F20401C2F200010860704740F2FF7CE1
:1017500002460068C4F2000C624512DD40F6000348
:10176000C4F200039A4215D043F20043C4F20103CD
:101770009A420FD042F60043C4F201039A4209D0C4
:101780000CE0B2F1804F05D040F20043C4F20003F8
:101790009A4203D14B6820F07000184343F2FF33A4
:1017A000C4F201039A420BDC624518DCB2F1804FAF
:1017B0002AD040F20043C4F200039A4224D027E02A
:1017C00044F2FF33C4F201039A4211DC43F20043B6
:1017D000C4F201039A4217D044F2000310E040F62D
:1017E0000003C4F200039A420ED042F6004307E021
:1017F00044F60003C4F201039A4205D044F20043C8
:10180000C4F201039A4203D1CB6820F4407018431C
:1018100010608868D062A2F18040A0F596300B88F5
:101820004FEAB0200728936207D8012303FA00F09B
:1018300010F0E50F1CBF08691063506940F001010A
:10184000002051617047000070B504460068C00771
:101850001CBF012070BD0E46206846F6F311CEF67F
:10186000FF710840D6E9021CD6E904320843F56945
:101870001843104328432060606820F4405040EA39
:101880000C006060B069A16821F440710843A06059
:1018900044F6FF30C4F2000084424FF000000DDC3B
:1018A00044F20041C4F200018C4218D044F6000119
:1018B000C4F200018C4215D130200CE044F6004106
:1018C000C4F200018C4228D043F60001C4F20101A9
:1018D0008C4207D10320FFF705FE20B922E00C203F
:1018E000FFF700FEF0B17168E1B132680B2A21D830
:1018F00014A353F82220F369B0FBF2F0B3F5004FC4
:1019000012D1400000EB5100B0FBF1F04FF6F07146
:101910000140C0F3420008440BE0C020FFF74CFD3B
:101920000028E0D1012006E000EB5100B0FBF1F00F
:1019300080B2E06000203188E26A22F00F02114399
:10194000E16270BD01000000020000000400000020
:1019500006000000080000000A0000000C00000063
:101960001000000020000000400000008000000087
:101970000001000081B04EF21001CEF200010A68B1
:1019800001300092009A28BF4FF0FF300A68D2035E
:1019900000EBE2700028F9D101B07047FEE70000CB
:1019A000704700007047000040F21840C4F6000085
:1019B0000169002241F40071016101694FF0030CDB
:1019C00041F480710161016841F020010160C0F8BB
:1019D000FC23016941F02001016100BF00BF00BF8D
:1019E000016841F020010160016841F480710160EB
:1019F0000121C0F8FC13036943F02003036100BF19
:101A000000BF00BF036843F020030360036843F492
:101A100080730360036943F400730361036943F453
:101A200080730361036843F020030360C0F8FC1374
:101A3000036943F02003036100BF00BF00BF0368D8
:101A400043F020030360036843F480730360C0F82D
:101A5000FC23026942F02002026100BF00BF00BF08
:101A6000026842F020020260026842F48072026062
:101A7000026942F400720261026942F480720261FA
:101A8000026842F0200202601022C0F8FC230269C2
:101A900042F02002026100BF00BF00BF026842F0B6
:101AA00020020260026842F48072026041F2907289
:101AB000C0F8FC23026942F02002026100BF00BFAF
:101AC00000BF026842F020020260026842F48072A5
:101AD0000260026942F400720261026942F480729B
:101AE0000261026842F0200202606022C0F8FC231A
:101AF000026942F02002026100BF00BF00BF02681D
:101B000042F020020260026842F4807202604FF4E8
:101B10001C52C0F8FC23026942F02002026100BF9F
:101B200000BF00BF026842F020020260026842F477
:101B300080720260026942F400720261026942F43A
:101B400080720261026842F0200202606122C0F8E5
:101B5000FC23026942F02002026100BF00BF00BF07
:101B6000026842F020020260026842F48072026061
:101B7000C0F8FC13016941F02001016100BF00BF02
:101B800000BF016841F020010160016841F48071EB
:101B90000160016941F400710161016941F48071E2
:101BA0000161016841F0200101604621C0F8FC1389
:101BB000016941F02001016100BF00BF00BF016861
:101BC00041F020010160016841F48071016002214F
:101BD000C0F8FC13026942F02002026100BF00BF9E
:101BE00000BF026842F020020260026842F4807284
:101BF0000260026942F400720261026942F480727A
:101C00000261026842F0200202601322C0F8FC2345
:101C1000026942F02002026100BF00BF00BF0268FB
:101C200042F020020260026842F48072026048F2D0
:101C30001002C0F8FC23026942F02002026100BFDA
:101C400000BF00BF026842F020020260026842F456
:101C500080720260026942F400720261026942F419
:101C600080720261026842F0200202601222C0F813
:101C7000FC23026942F02002026100BF00BF00BFE6
:101C8000026842F020020260026842F48072026040
:101C900048F2FE02C0F8FC23026942F02002026111
:101CA00000BF00BF00BF026842F02002026002686D
:101CB00042F480720260026942F4007202610269B9
:101CC00042F480720261026842F020020260C0F8B1
:101CD000FC13016941F02001016100BF00BF00BF9A
:101CE000016841F020010160016841F480710160E8
:101CF0004FF4A061C0F8FC13016941F020010161BB
:101D000000BF00BF00BF016841F020010160016811
:101D100041F480710160016941F400710161016960
:101D200041F480710161016841F020010160C0F857
:101D3000FCC3026942F02002026100BF00BF00BF85
:101D4000026842F020020260026842F4807202607F
:101D500041F23002C0F8FC23026942F02002026125
:101D600000BF00BF00BF026842F0200202600268AC
:101D700042F480720260026942F4007202610269F8
:101D800042F480720261026842F020020260302256
:101D9000C0F8FC23026942F02002026100BF00BFCC
:101DA00000BF026842F020020260026842F48072C2
:101DB000026040F20332C0F8FC23036943F02003C1
:101DC000036100BF00BF00BF036843F0200303604E
:101DD000036843F480730360036943F40073036191
:101DE000036943F480730361036843F020030360D5
:101DF0003123C0F8FC33036943F02003036100BFC3
:101E000000BF00BF036843F020030360036843F48E
:101E100080730360C0F8FC23036943F0200303616F
:101E200000BF00BF00BF036843F0200303600368E6
:101E300043F480730360036943F40073036103692F
:101E400043F480730361036843F02003036032238B
:101E5000C0F8FC33036943F02003036100BF00BFF7
:101E600000BF036843F020030360036843F48073FA
:101E70000360C0F8FC23036943F02003036100BF43
:101E800000BF00BF036843F020030360036843F40E
:101E900080730360036943F400730361036943F4CF
:101EA00080730361036843F0200303603323C0F8A9
:101EB000FC33036943F02003036100BF00BF00BF90
:101EC000036843F020030360036843F480730360F6
:101ED0004FF44073C0F8FC33016941F02001016107
:101EE00000BF00BF00BF016841F020010160016830
:101EF00041F480710160016941F40071016101697F
:101F000041F480710161016841F0200101603421D8
:101F1000C0F8FC13016941F02001016100BF00BF5E
:101F200000BF016841F020010160016841F4807147
:101F30000160C0F8FCC3016941F02001016100BFEC
:101F400000BF00BF016841F020010160016841F459
:101F500080710160016941F400710161016941F41E
:101F600080710161016841F0200101603521C0F8F4
:101F7000FC13016941F02001016100BF00BF00BFF7
:101F8000016841F020010160016841F48071016045
:101F9000C0F8FC23016941F02001016100BF00BFCE
:101FA00000BF016841F020010160016841F48071C7
:101FB0000160016941F400710161016941F48071BE
:101FC0000161016841F0200101603621C0F8FC1375
:101FD000016941F02001016100BF00BF00BF01683D
:101FE00041F020010160016841F480710160142119
:101FF000C0F8FC13016941F02001016100BF00BF7E
:1020000000BF016841F020010160016841F4807166
:102010000160016941F400710161016941F480715D
:102020000161016841F0200101603721C0F8FC1313
:10203000016941F02001016100BF00BF00BF0168DC
:1020400041F020010160016841F480710160C0F835
:10205000FC23016941F02001016100BF00BF00BF06
:10206000016841F020010160016841F48071016064
:10207000016941F400710161016941F480710161FC
:10208000016841F0200101603821C0F8FC130169AA
:1020900041F02001016100BF00BF00BF016841F0B5
:1020A00020010160016841F480710160C0F8FC23E7
:1020B000016941F02001016100BF00BF00BF01685C
:1020C00041F020010160016841F480710160016903
:1020D00041F400710161016941F48071016101689D
:1020E00041F0200101603921C0F8FC13016941F081
:1020F0002001016100BF00BF00BF016841F0200165
:102100000160016841F480710160C0F8FC2301693D
:1021100041F02001016100BF00BF00BF016841F034
:1021200020010160016841F480710160016941F49E
:1021300000710161016941F480710161016841F040
:10214000200101603A21C0F8FC13016941F020012F
:10215000016100BF00BF00BF016841F020010160C4
:10216000016841F480710160C0F8FC33016941F0FD
:102170002001016100BF00BF00BF016841F02001E4
:102180000160016841F480710160016941F40071EE
:102190000161016941F480710161016841F0200130
:1021A00001603B21C0F8FC13016941F0200101618D
:1021B00000BF00BF00BF016841F02001016001685D
:1021C00041F480710160C0F8FCC3016941F0200155
:1021D000016100BF00BF00BF016841F02001016044
:1021E000016841F480710160016941F4007101618D
:1021F000016941F480710161016841F020010160D1
:102200003C21C0F8FC13016941F02001016100BFCD
:1022100000BF00BF016841F020010160016841F486
:1022200080710160C0F8FC23016941F02001016167
:1022300000BF00BF00BF016841F0200101600168DC
:1022400041F480710160016941F40071016101692B
:1022500041F480710161016841F0200101603D217C
:10226000C0F8FC13016941F02001016100BF00BF0B
:1022700000BF016841F020010160016841F48071F4
:1022800001604FF4A051C0F8FC13016941F0200136
:10229000016100BF00BF00BF016841F02001016083
:1022A000016841F480710160016941F400710161CC
:1022B000016941F480710161016841F02001016010
:1022C0009221C0F8FC13016941F02001016100BFB7
:1022D00000BF00BF016841F020010160016841F4C6
:1022E000807101604FF40071C0F8FC13016941F086
:1022F0002001016100BF00BF00BF016841F0200163
:102300000160016841F480710160016941F400716C
:102310000161016941F480710161016841F02001AE
:1023200001609321C0F8FC13016941F020010161B3
:1023300000BF00BF00BF016841F0200101600168DB
:1023400041F480710160C0F8FC23016941F0200173
:10235000016100BF00BF00BF016841F020010160C2
:10236000016841F480710160016941F4007101610B
:10237000016941F480710161016841F0200101604F
:102380009021C0F8FC13016941F02001016100BFF8
:1023900000BF00BF016841F020010160016841F405
:1023A0008071016040F60D01C0F8FC13016941F035
:1023B0002001016100BF00BF00BF016841F02001A2
:1023C0000160016841F480710160016941F40071AC
:1023D0000161016941F480710161016841F02001EE
:1023E0000160C0F8FCC3016941F02001016100BF38
:1023F00000BF00BF016841F020010160016841F4A5
:102400008071016041F21801C0F8FC13016941F0CC
:102410002001016100BF00BF00BF016841F0200141
:102420000160016841F480710160016941F400714B
:102430000161016941F480710161016841F020018D
:1024400001600721C0F8FC13016941F0200101611E
:1024500000BF00BF00BF016841F0200101600168BA
:1024600041F48071016040F27311C0F8FC130169FE
:1024700041F02001016100BF00BF00BF016841F0D1
:1024800020010160016841F4807101607047000023
:102490002DE9F04F81B040F21844C4F600042069E1
:1024A0004FF0120940F4007020612069002540F4CB
:1024B000807020612068112640F020002060E32019
:1024C000C4F8FC0320694FF0130B40F0200020619A
:1024D00000BF00BF00BF2068102740F02000206030
:1024E00020684FF0070840F48070206043F2080035
:1024F000C4F8FC03206940F02000206100BF00BF49
:1025000000BF206840F020002060206840F4807008
:102510002060206940F400702061206940F48070E0
:102520002061206840F020002060E720C4F8FC0310
:10253000206940F02000206100BF00BF00BF20687C
:1025400040F020002060206840F480702060C4F8D3
:10255000FC93206940F02000206100BF00BF00BF55
:10256000206840F020002060206840F480702060E7
:10257000206940F400702061206940F4807020617F
:10258000206840F020002060EF20C4F8FC032069A0
:1025900040F02000206100BF00BF00BF206840F075
:1025A00020002060206840F48070206041F23120DB
:1025B000C4F8FC03206940F02000206100BF00BF88
:1025C00000BF206840F020002060206840F4807048
:1025D0002060206940F400702061206940F4807020
:1025E0002061206840F0200020600120C4F8FC0336
:1025F000206940F02000206100BF00BF00BF2068BC
:1026000040F020002060206840F480702060C4F812
:10261000FC53206940F02000206100BF00BF00BFD4
:10262000206840F020002060206840F48070206026
:10263000206940F400702061206940F480702061BE
:10264000206840F0200020600220C4F8FC032069CC
:1026500040F02000206100BF00BF00BF206840F0B4
:1026600020002060206840F4807020604FF4E0601B
:10267000C4F8FC03206940F02000206100BF00BFC7
:1026800000BF206840F020002060206840F4807087
:102690002060206940F400702061206940F480705F
:1026A0002061206840F0200020600320C4F8FC0373
:1026B000206940F02000206100BF00BF00BF2068FB
:1026C00040F020002060206840F48070206041F2DB
:1026D0003000C4F8FC03206940F02000206100BFF6
:1026E00000BF00BF206840F020002060206840F458
:1026F00080702060206940F400702061206940F4FF
:1027000080702061206840F0200020600420C4F820
:10271000FC03206940F02000206100BF00BF00BF23
:10272000206840F020002060206840F48070206025
:10273000C4F8FC53206940F02000206100BF00BFB6
:1027400000BF206840F020002060206840F48070C6
:102750002060206940F400702061206940F480709E
:102760002061206840F0200020600820C4F8FC03AD
:10277000206940F02000206100BF00BF00BF20683A
:1027800040F020002060206840F48070206040F21B
:102790000720C4F8FC03206940F02000206100BF3E
:1027A00000BF00BF206840F020002060206840F497
:1027B00080702060206940F400702061206940F43E
:1027C00080702061206840F0200020600920C4F85B
:1027D000FC03206940F02000206100BF00BF00BF63
:1027E000206840F020002060206840F48070206065
:1027F000C4F8FC53206940F02000206100BF00BFF6
:1028000000BF206840F020002060206840F4807005
:102810002060206940F400702061206940F48070DD
:102820002061206840F0200020600A20C4F8FC03EA
:10283000206940F02000206100BF00BF00BF206879
:1028400040F020002060206840F480702060C4F8D0
:10285000FC53206940F02000206100BF00BF00BF92
:10286000206840F020002060206840F480702060E4
:10287000206940F400702061206940F4807020617C
:10288000206840F0200020600C20C4F8FC03206980
:1028900040F02000206100BF00BF00BF206840F072
:1028A00020002060206840F480702060C4F8FC5351
:1028B000206940F02000206100BF00BF00BF2068F9
:1028C00040F020002060206840F480702060206983
:1028D00040F400702061206940F48070206120681D
:1028E00040F0200020600D20C4F8FC03206940F077
:1028F0002000206100BF00BF00BF206840F0200022
:102900002060206840F480702060C4F8FC53206987
:1029100040F02000206100BF00BF00BF206840F0F1
:1029200020002060206840F480702060206940F41E
:1029300000702061206940F480702061206840F0C0
:10294000200020600F20C4F8FC03206940F0200024
:10295000206100BF00BF00BF206840F02000206061
:10296000206840F480702060C4F8FC53206940F077
:102970002000206100BF00BF00BF206840F02000A1
:102980002060206840F480702060206940F400706E
:102990002061206940F480702061206840F02000B0
:1029A00020601020C4F8FC03206940F02000206162
:1029B00000BF00BF00BF206840F0200020602068FA
:1029C00040F480702060C4F8FC53206940F020007F
:1029D000206100BF00BF00BF206840F020002060E1
:1029E000206840F480702060206940F4007020610D
:1029F000206940F480702061206840F02000206051
:102A0000C4F8FC63206940F02000206100BF00BFD3
:102A100000BF206840F020002060206840F48070F3
:102A200020600720C4F8FC03206940F020002061EA
:102A300000BF00BF00BF206840F020002060206879
:102A400040F480702060206940F4007020612069AB
:102A500040F480702061206840F020002060C4F8BD
:102A6000FC93206940F02000206100BF00BF00BF40
:102A7000206840F020002060206840F480702060D2
:102A8000C4F8FC53206940F02000206100BF00BF63
:102A900000BF206840F020002060206840F4807073
:102AA0002060206940F400702061206940F480704B
:102AB0002061206840F020002060C4F8FCB3206949
:102AC00040F02000206100BF00BF00BF206840F040
:102AD00020002060206840F480702060C4F8FC531F
:102AE000206940F02000206100BF00BF00BF2068C7
:102AF00040F020002060206840F480702060C820F2
:102B0000FEF738FF20694FF0320A40F40070206170
:102B1000206940F480702061206840F0200020602F
:102B2000C4F8FC732069102740F02000206100BF2A
:102B300000BF00BF206840F020002060206840F403
:102B40008070206041F29060C4F8FC03206940F07E
:102B50002000206100BF00BF00BF206840F02000BF
:102B60002060206840F480702060206940F400708C
:102B70002061206940F480702061206840F02000CE
:102B80002060C4F8FC63206940F02000206100BF91
:102B900000BF00BF206840F020002060206840F4A3
:102BA0008070206040F22720C4F8FC03206940F0C8
:102BB0002000206100BF00BF00BF206840F020005F
:102BC0002060206840F4807020603220FEF7D2FE42
:102BD000206940F400702061206940F48070206119
:102BE000206840F020002060C4F8FC93206940F089
:102BF0002000206100BF00BF00BF206840F020001F
:102C00002060206840F4807020601D20C4F8FC0320
:102C1000206940F02000206100BF00BF00BF206895
:102C200040F020002060206840F480702060322056
:102C3000FEF7A0FE206940F400702061206940F496
:102C400080702061206840F020002060C4F8FCB350
:102C5000206940F02000206100BF00BF00BF206855
:102C600040F020002060206840F4807020604FF425
:102C70000060C4F8FC03206940F02000206100BF20
:102C800000BF00BF206840F020002060206840F4B2
:102C900080702060206940F400702061206940F459
:102CA00080702061206840F0200020602920C4F856
:102CB000FC03206940F02000206100BF00BF00BF7E
:102CC000206840F020002060206840F48070206080
:102CD0001420C4F8FC03206940F02000206100BFEC
:102CE00000BF00BF206840F020002060206840F452
:102CF00080702060206940F400702061206940F4F9
:102D000080702061206840F0200020602B20C4F8F3
:102D1000FC03206940F02000206100BF00BF00BF1D
:102D2000206840F020002060206840F4807020601F
:102D30000B20C4F8FC03206940F02000206100BF94
:102D400000BF00BF206840F020002060206840F4F1
:102D5000807020603220FEF70DFE2069032140F4D0
:102D6000007020612069072240F480702061206893
:102D700040F0200020602020C4F8FC03206940F0CF
:102D80002000206100BF00BF00BF206840F020008D
:102D90002060206840F480702060C4F8FC532069F3
:102DA00040F02000206100BF00BF00BF206840F05D
:102DB00020002060206840F480702060206940F48A
:102DC00000702061206940F480702061206840F02C
:102DD000200020602120C4F8FC03206940F020007E
:102DE000206100BF00BF00BF206840F020002060CD
:102DF000206840F480702060C4F8FC53206940F0E3
:102E00002000206100BF00BF00BF206840F020000C
:102E10002060206840F480702060206940F40070D9
:102E20002061206940F480702061206840F020001B
:102E300020603020C4F8FC03206940F020002061AD
:102E400000BF00BF00BF206840F020002060206865
:102E500040F480702060C4F8FC83206940F02000BA
:102E6000206100BF00BF00BF206840F0200020604C
:102E7000206840F480702060206940F40070206178
:102E8000206940F480702061206840F020002060BC
:102E90003120C4F8FC03206940F02000206100BF0D
:102EA00000BF00BF206840F020002060206840F490
:102EB0008070206040F20770C4F8FC03206940F085
:102EC0002000206100BF00BF00BF206840F020004C
:102ED0002060206840F480702060206940F4007019
:102EE0002061206940F480702061206840F020005B
:102EF0002060C4F8FCA3206940F02000206100BFDE
:102F000000BF00BF206840F020002060206840F42F
:102F1000807020600620C4F8FC03206940F0200087
:102F2000206100BF00BF00BF206840F0200020608B
:102F3000206840F480702060206940F400702061B7
:102F4000206940F480702061206840F020002060FB
:102F50003520C4F8FC03206940F02000206100BF48
:102F600000BF00BF206840F020002060206840F4CF
:102F70008070206040F20470C4F8FC03206940F0C7
:102F80002000206100BF00BF00BF206840F020008B
:102F90002060206840F480702060206940F4007058
:102FA0002061206940F480702061206840F020009A
:102FB00020603620C4F8FC03206940F02000206126
:102FC00000BF00BF00BF206840F0200020602068E4
:102FD00040F48070206041F60470C4F8FC0320695E
:102FE00040F02000206100BF00BF00BF206840F01B
:102FF00020002060206840F480702060206940F448
:1030000000702061206940F480702061206840F0E9
:10301000200020603720C4F8FC03206940F0200025
:10302000206100BF00BF00BF206840F0200020608A
:10303000206840F4807020600420C4F8FC032069FC
:1030400040F02000206100BF00BF00BF206840F0BA
:1030500020002060206840F480702060206940F4E7
:1030600000702061206940F480702061206840F089
:10307000200020603820C4F8FC03206940F02000C4
:10308000206100BF00BF00BF206840F0200020602A
:10309000206840F480702060C4F8FC53206940F040
:1030A0002000206100BF00BF00BF206840F020006A
:1030B0002060206840F480702060206940F4007037
:1030C0002061206940F480702061206840F0200079
:1030D00020603920C4F8FC03206940F02000206102
:1030E00000BF00BF00BF206840F0200020602068C3
:1030F00040F48070206040F20670C4F8FC03206940
:1031000040F02000206100BF00BF00BF206840F0F9
:1031100020002060206840F480702060206940F426
:1031200000702061206940F480702061206840F0C8
:10313000200020603C20C4F8FC03206940F02000FF
:10314000206100BF00BF00BF206840F02000206069
:10315000206840F48070206040F20170C4F8FC03E5
:10316000206940F02000206100BF00BF00BF206840
:1031700040F020002060206840F4807020602069CA
:1031800040F400702061206940F480702061206864
:1031900040F0200020603D20C4F8FC03206940F08E
:1031A0002000206100BF00BF00BF206840F0200069
:1031B0002060206840F4807020600F20C4F8FC0379
:1031C000206940F02000206100BF00BF00BF2068E0
:1031D00040F020002060206840F48070206020696A
:1031E00040F400702061206940F480702061206804
:1031F00040F0200020605020C4F8FC03206940F01B
:103200002000206100BF00BF00BF206840F0200008
:103210002060206840F480702060C4F8FC5320696E
:1032200040F02000206100BF00BF00BF206840F0D8
:1032300020002060206840F480702060206940F405
:1032400000702061206940F480702061206840F0A7
:10325000200020605120C4F8FC03206940F02000C9
:10326000206100BF00BF00BF206840F02000206048
:10327000206840F480702060EF20C4F8FC032069CF
:1032800040F02000206100BF00BF00BF206840F078
:1032900020002060206840F480702060206940F4A5
:1032A00000702061206940F480702061206840F047
:1032B000200020605220C4F8FC03206940F0200068
:1032C000206100BF00BF00BF206840F020002060E8
:1032D000206840F480702060C4F8FC53206940F0FE
:1032E0002000206100BF00BF00BF206840F0200028
:1032F0002060206840F480702060206940F40070F5
:103300002061206940F480702061206840F0200036
:1033100020605320C4F8FC03206940F020002061A5
:1033200000BF00BF00BF206840F020002060206880
:1033300040F48070206040F23F10C4F8FC03206924
:1033400040F02000206100BF00BF00BF206840F0B7
:1033500020002060206840F480702060206940F4E4
:1033600000702061206940F480702061206840F086
:10337000200020606020C4F8FC03206940F0200099
:10338000206100BF00BF00BF206840F02000206027
:10339000206840F4807020604FF41C50C4F8FC0397
:1033A000206940F02000206100BF00BF00BF2068FE
:1033B00040F020002060206840F480702060206988
:1033C00040F400702061206940F480702061206822
:1033D00040F0200020606120C4F8FC03206940F028
:1033E0002000206100BF00BF00BF206840F0200027
:1033F0002060206840F4807020600120C4F8FC0345
:10340000206940F02000206100BF00BF00BF20689D
:1034100040F020002060206840F480702060206927
:1034200040F400702061206940F4807020612068C1
:1034300040F0200020606A20C4F8FC03206940F0BE
:103440002000206100BF00BF00BF206840F02000C6
:103450002060206840F480702060C4F8FC5320692C
:1034600040F02000206100BF00BF00BF206840F096
:1034700020002060206840F480702060206940F4C3
:1034800000702061206940F480702061206840F065
:10349000200020608020C4F8FC03206940F0200058
:1034A000206100BF00BF00BF206840F02000206006
:1034B000206840F480702060C4F8FC53206940F01C
:1034C0002000206100BF00BF00BF206840F0200046
:1034D0002060206840F480702060206940F4007013
:1034E0002061206940F480702061206840F0200055
:1034F00020608120C4F8FC03206940F02000206196
:1035000000BF00BF00BF206840F02000206020689E
:1035100040F480702060C4F8FC53206940F0200023
:10352000206100BF00BF00BF206840F02000206085
:10353000206840F480702060206940F400702061B1
:10354000206940F480702061206840F020002060F5
:103550008220C4F8FC03206940F02000206100BFF5
:1035600000BF00BF206840F020002060206840F4C9
:1035700080702060C4F8FC53206940F02000206176
:1035800000BF00BF00BF206840F02000206020681E
:1035900040F480702060206940F400702061206950
:1035A00040F480702061206840F02000206083207B
:1035B000C4F8FC03206940F02000206100BF00BF78
:1035C00000BF206840F020002060206840F4807038
:1035D0002060C4F8FC53206940F02000206100BF47
:1035E00000BF00BF206840F020002060206840F449
:1035F00080702060206940F400702061206940F4F0
:1036000080702061206840F0200020608420C4F891
:10361000FC03206940F02000206100BF00BF00BF14
:10362000206840F020002060206840F48070206016
:10363000C4F8FC53206940F02000206100BF00BFA7
:1036400000BF206840F020002060206840F48070B7
:103650002060206940F400702061206940F480708F
:103660002061206840F0200020608520C4F8FC0321
:10367000206940F02000206100BF00BF00BF20682B
:1036800040F020002060206840F480702060C4F882
:10369000FC53206940F02000206100BF00BF00BF44
:1036A000206840F020002060206840F48070206096
:1036B000206940F400702061206940F4807020612E
:1036C000206840F0200020609020C4F8FC032069AE
:1036D00040F02000206100BF00BF00BF206840F024
:1036E00020002060206840F480702060C4F8FC73E3
:1036F000206940F02000206100BF00BF00BF2068AB
:1037000040F020002060206840F480702060206934
:1037100040F400702061206940F4807020612068CE
:1037200040F0200020609220C4F8FC03206940F0A3
:103730002000206100BF00BF00BF206840F02000D3
:103740002060206840F480702060C4F8FC53206939
:1037500040F02000206100BF00BF00BF206840F0A3
:1037600020002060206840F480702060206940F4D0
:1037700000702061206940F480702061206840F072
:10378000200020609320C4F8FC03206940F0200052
:10379000206100BF00BF00BF206840F02000206013
:1037A000206840F480702060C4F8FC13206940F069
:1037B0002000206100BF00BF00BF206840F0200053
:1037C0002060206840F480702060206940F4007020
:1037D0002061206940F480702061206840F0200062
:1037E00020609520C4F8FC03206940F0200020618F
:1037F00000BF00BF00BF206840F0200020602068AC
:1038000040F4807020604FF48870C4F8FC03206995
:1038100040F02000206100BF00BF00BF206840F0E2
:1038200020002060206840F480702060206940F40F
:1038300000702061206940F480702061206840F0B1
:10384000200020609720C4F8FC03206940F020008D
:10385000206100BF00BF00BF206840F02000206052
:10386000206840F480702060C4F8FC53206940F068
:103870002000206100BF00BF00BF206840F0200092
:103880002060206840F480702060206940F400705F
:103890002061206940F480702061206840F02000A1
:1038A00020609820C4F8FC03206940F020002061CB
:1038B00000BF00BF00BF206840F0200020602068EB
:1038C00040F480702060C4F8FC53206940F0200070
:1038D000206100BF00BF00BF206840F020002060D2
:1038E000206840F480702060206940F400702061FE
:1038F000206940F480702061206840F02000206042
:10390000C4F8FC13206940F02000206100BF00BF14
:1039100000BF206840F020002060206840F48070E4
:10392000206041F21800C4F8FC03206940F0200038
:10393000206100BF00BF00BF206840F02000206071
:10394000206840F480702060206940F4007020619D
:10395000206940F480702061206840F020002060E1
:10396000C4F8FC23206940F02000206100BF00BFA4
:1039700000BF206840F020002060206840F4807084
:10398000206040F27310C4F8FC03206940F020006E
:10399000206100BF00BF00BF206840F02000206011
:1039A000206840F48070206001B0BDE8F08F000016
:1039B0007047000040F2BB10C2F2000001781D29E0
:1039C0009CBF0131017040F2B910C2F200000178D1
:1039D00063299CBF0131017040F2BA10C2F20000AD
:1039E0000178C7299CBF0131017040F2BC10C2F2BE
:1039F00000000178C7299CBF0131017070470000A9
:103A0000B0B582B041F20805C4F20205A86D4FF6C8
:103A1000FF0340F00100A865A86D042400F0010038
:103A200000900098296D4EF60C5041F080512965A8
:103A30002A6DCEF2000002F080520192019A0268D3
:103A400047F208011A4040F20033C0F2FA531A4319
:103A5000C4F2000102600B6842F2000243F48043AA
:103A6000C4F202020B60136864F30303136000BF27
:103A7000136803F00F03042BFAD18A6F22F48072CB
:103A80008A6755F8081C41F4803145F8081C00BFCE
:103A900055F8081C8903FBD5696848F20C02CFF67B
:103AA000FF12114045F2535211436960696841F0B9
:103AB0008071696055F8081C41F0807145F8081C58
:103AC00055F8081C8901FBD52968082241F003013B
:103AD0002960296862F30711296000BF296801F095
:103AE0000C010C29FAD1D0F8F02041F2000142F08B
:103AF0008072CEF20001C0F8F020086840F00100AA
:103B000008600020486000BF48686428FCD328682B
:103B10004FF6806420F0F00028602868C0F6212469
:103B200020F4E0602860286820F460502860204677
:103B3000FDF72EFC2046FDF703FED5F8800002219C
:103B400020F00300C5F88000D5F8800061F31D70F7
:103B5000C5F880004EF21000CEF20000016841F07E
:103B60000201016002B0B0BD4EF68850CEF20000F6
:103B7000016841F4700101604FF0006140F8801C61
:103B8000704700001020C4F200006FF001010160D6
:103B90000168890758BF7047416A40F2A812C2F213
:103BA0000002116000214161116849F28062C0F297
:103BB0009802B2FBF1F140F2B412C2F200021160BD
:103BC0006FF002010160704740F21040C4F2000043
:103BD0006FF0010101600168890758BF7047416AB1
:103BE00040F2A412C2F2000211600021416111688A
:103BF00049F28062C0F29802B2FBF1F140F2B012D9
:103C0000C2F2000211606FF0020101607047000013
:103C1000FEE700000820C5F20000816A0B2262F373
:103C20008A11816201684FF6C072C7F6FF721140B7
:103C3000043101604FF0A0410A685207FCD5806B47
:103C400080B270470820C5F20000816A052262F345
:103C50008A11816201684FF6C072C7F6FF72114087
:103C6000043101604FF0A0410A685207FCD5806B17
:103C700080B2704740F20810C5F20000816A0F223E
:103C800062F38A11816201684FF6C072C7F6FF7253
:103C900011400431016000BF50F8081C4907FBD5F2
:103CA000806B80B27047000070B594B0002641F27E
:103CB0004C001296CDE91066CDE90E66CDE90C6692
:103CC000CDE90A66CDE90866CDE90666CDE9046668
:103CD000CDE90266CDE90066C4F2020001684FF644
:103CE000C07441F4005101600168082501F40051DD
:103CF000139113990168C5F6FF7441F00201016048
:103D00000068694600F00200139013984FF4A04039
:103D100000900320019040F20040C4F60000C5F27C
:103D200000050496FDF7CCFA4FF0A040FDF7A2F98C
:103D30004FF48040129010A94FF0A040CDE91066DA
:103D4000FDF782FA0AA94FF0A040CDE90A66CDE955
:103D50000C66CDE90E66FDF78BFAD5F8B80043F690
:103D6000FF718843C5F8B800A86840F2034120F409
:103D70008030A860A8688843A8604FF44030CDE93F
:103D8000060605F53E7006A9FDF750F9286804F10E
:103D90008051204028602868084000F18050286049
:103DA000A86A0B2161F38A10A8622869052140F0F6
:103DB00038002861D5F8A80020F40060C5F8A800F4
:103DC000A86A61F31030A862E8684FF6C07140F449
:103DD0006030E860D5F8A800C3F6FF7120F020003D
:103DE000C5F8A8002868084000F10040286000BF1E
:103DF00028680028FCD4286804F10051084040F0ED
:103E00000100286014B070BDF0B591B0002741F2F8
:103E10004C000F97CDE90D77CDE90B77CDE9097708
:103E2000CDE90777CDE90577CDE90377CDE90177CE
:103E3000C4F2020001684FF6C07541F40051016000
:103E4000016840F2081601F40051109110990168C0
:103E5000C5F6FF7541F002010160006801A900F09C
:103E60000200109010984FF400400190032002903F
:103E700040F20040C4F60000C5F200060597FDF7C9
:103E80001FFAA6F108042046FDF7F4F80DA9204614
:103E9000CDE90D770F97FDF7D7F907A92046CDE9B2
:103EA0000777CDE90977CDE90B77FDF7E1F9D6F88A
:103EB000B80043F6FF718843C6F8B800B06840F216
:103EC000034120F48030B060B0688843B06030684F
:103ED00005F18051284030603068084000F1805082
:103EE0003060B06A0F2161F38A10B0623069052139
:103EF00061F3D1303061D6F8A8004FF6C07120F4DC
:103F00000040C6F8A8003068C3F6FF71084000F111
:103F10000040306030680028FCD4306805F1005162
:103F2000084040F00100306011B0F0BD80B586B0AF
:103F300041F24C00C4F20200016841F0020101604C
:103F40000068694600F0020000900098C0200090D0
:103F50000120019004900220029040F20040C4F63B
:103F60000000FDF7ADF906B080BD000070B586B069
:103F700041F24C00C4F2020001686C4641F00101BC
:103F800001600168002501F00101009100990168BC
:103F9000012641F0020101600068214600F00200A4
:103FA000009000980720009040F20040C4F6000006
:103FB00001950496FDF784F94FF090402146CDE934
:103FC00000650496FDF77CF906B070BD80B5FCF77E
:103FD000EFFE0020FDF712F84FF6FF70FDF71AF81C
:103FE0000020BDE88040FCF7DFBC00002DE9F04177
:103FF00086B041F24C00C4F20200016840F6180598
:1040000041F0040101600168C4F6000501F00401FB
:104010000091009901686C4641F008010160006858
:104020004FF0010800F00800009000984FF47F4026
:1040300000900027A5F118002146CDF804800397D1
:10404000FDF73EF9042605F57A702146CDE90068B2
:104050000397FDF735F94FF480702860C5F80064C8
:1040600000BF00BF4FF4806000BFC5F81064286037
:10407000C5F8006400BF00BF4FF4805000BFC5F812
:1040800010642860C5F8006400BF00BF4FF4804092
:1040900000BFC5F810642860C5F8006400BF00BF09
:1040A0004FF4007000BFC5F810642860C5F80064C4
:1040B00000BF00BF4FF4006000BFC5F81064286067
:1040C000C5F8006400BF00BF4FF4005000BFC5F842
:1040D00010642860C5F8006400BF00BF4FF40040C2
:1040E00000BFC5F810642860C5F8006400BF00BFB9
:1040F00000BFC5F8106406B0BDE8F0812DE9F043BB
:1041000091B041F24C00C4F20200C16840F2004498
:1041100041F48041C160C168C4F6000401F48041EB
:104120000791079901680DF1040941F0020101604E
:104130000068022700F00200079007984FF4005033
:10414000019000264FF0050820464946CDE9027748
:10415000CDE90467CDF81880FDF7B2F84FF4804040
:10416000CDE9010720464946CDE90366CDE905685A
:10417000FDF7A6F84FF40040CDE901072046494677
:10418000CDE90376CDE90578FDF79AF801204FF4E3
:104190008055CDE90207CDE90460204649460195E6
:1041A000FDF78EF84FF48270A56108904FF4E0603F
:1041B000CDE909064FF400700C90102043F600047E
:1041C000CDE90D060720C4F20004CDE90F6007A970
:1041D000204607960B96FDF77BFA206840F04000DA
:1041E0002060606840F48050606011B0BDE8F083EA
:1041F00080B5FFF705FC4EF21000CEF2000001681A
:1042000041F00201016000F00DF800F0A5F8FFF7A1
:104210008DFEFFF7ABFEFFF7E9FEBDE88040FFF73C
:10422000D5BE0000B0B58CB0002441F24C000A9419
:10423000CDE90844CDE90644CDE90444CDE9024482
:10424000CDE90044C4F20200C168012541F001013A
:10425000C160C16801F001010B910B99016841F047
:10426000010101600068694600F001000B900B98A5
:104270004FF4004000900220CDE901044FF090403F
:10428000CDE903440595FDF71BF84EF60C50CEF230
:10429000000000684EF20010CEF200004FF0805196
:1042A00080F81C4301601020ADF818004FF6FF7035
:1042B000CDE9080406A94FF0804007944FF08044F0
:1042C000FDF744FA20684FF68F7220F080002060DE
:1042D0001820C4F2000050F8141CCFF6FF52114011
:1042E00040F8141C50F8101C032221F0800140F803
:1042F000101C016865F301010160016821F00C01E7
:104300000160016862F307110160816821F00A0110
:1043100081606FF0010140F8081C6FF4007140F8F3
:10432000081C6FF0020140F8081C50F80C1C41F00A
:10433000010140F80C1C50F80C1C41F0020140F83F
:104340000C1C816841F001018160206840F001008F
:1043500020600CB0B0BD0000B0B58CB0002441F2BC
:104360004C000A94CDE90844CDE90644CDE9044463
:10437000CDE90244CDE90044C4F20200C168102531
:1043800041F00201C160C16801F002010B910B997B
:10439000016841F0020101600068032100F00200A1
:1043A0000B900B9802200190CDE9044040F20040B0
:1043B000CDE90214C4F6000069460095FCF780FFC1
:1043C0004EF60C50CEF2000000684EF21D40CEF2C8
:1043D000000004704EF20010CEF200004FF00051C9
:1043E00001604FF6FF700794CDE908040A9440F28B
:1043F0001844C4F20004A4F1180006A9ADF818503E
:10440000FDF7A4F954F8180C4FF68F7120F08000D6
:1044100044F8180C54F8140CCFF6FF51084044F837
:10442000140C54F8100C012120F0800044F8100CFA
:10443000206861F301002060206820F00C002060FB
:10444000206820F0F0002060A06820F00A00A06042
:104450006FF0010044F8080C6FF4007044F8080C89
:104460006FF0020044F8080C54F80C0C40F0020005
:1044700044F80C0C54F80C0C40F0010044F80C0CFF
:10448000A06840F00100A06054F8180C40F0010052
:1044900044F8180C0CB0B0BD94B0FFF7A9FEFCF7BF
:1044A0006DF9002000F00EFC40F2BE110130C2F2A6
:1044B00000010870C1B2002000F0F6FC052000F0F9
:1044C0008FFB47F29050C1F6FF7040F2DA0490E89B
:1044D0008C00C2F2000446F6DE21C0F60001204640
:1044E000009700F075FD22788AB140F2DA0043F6B9
:1044F0001C01C2F20000C4F2010100BFCA6000BF8B
:104500000A685206FCD510F8012F002AF6D140F2B5
:10451000BE10C2F2000040F20C050278C2F20005A3
:1045200046F6FB2140F2104805F1B400C0F6000148
:10453000C4F600080E9000F04BFD05F13C000D9014
:1045400005F150000C9005F164000B90ABA04168A0
:104550009FED870B0A9181689FED871B0991C168C8
:1045600000690891079051EC100BCDE9051051EC52
:10457000110BCDE9031040F2BB1440F2B91640F222
:10458000BA17DDE9039BC2F20004C2F20006C2F2D0
:1045900000074FF0000A00BF20781E2803D184F8DE
:1045A00000A000F035F900F09DF93078642840F063
:1045B000BD8040F2B810C2F20000007886F800A07A
:1045C000012855D1FFF770FBFFF71EFCFFF752FBE8
:1045D0000746FFF71FFB0646FFF734FB82463846C7
:1045E000FBF788FE069F2C46059D3A462B46FBF7B7
:1045F0000FFE5A464B46FBF70BFE02460D980B4644
:1046000072A100F0E5FC3046FBF774FE3A462B46FB
:10461000FBF7FEFD5A464B46FBF7FAFD02460C98A7
:104620000B466EA100F0D4FC50464FF0000AFBF799
:1046300061FE3A462B462546FBF7EAFD5A464B46B5
:10464000FBF7E6FD02460B980B4668A100F0C0FCA4
:104650006A48C4F8A0000A98C4F8A4000998C4F8ED
:10466000A8000898C4F8AC000798C4F8B0002BE084
:1046700046F6F7260D98C0F6000641A1324600F036
:10468000A7FC0C9842A1324600F0A2FC0B9844A172
:10469000324600F09DFCFFF731FD0A20CDF83CA02A
:1046A000FDF768F90FA8FCF7CFF89DF83C209DF8BE
:1046B0003D309DF83E709DF83F6005F1A0003CA1A3
:1046C000CDE9007600F084FC40F2BE10C2F200009A
:1046D00002780E9846F6FB21C0F6000100F078FC47
:1046E00040F2B010C2F20000026846F6CD2105F19A
:1046F0007800C0F6000100F06BFC40F2B410C2F28A
:104700000000026846F6BC2105F18C00C0F60001ED
:1047100000F05EFC40F2BB1440F2B91640F2BA174A
:10472000C2F20004C2F20006C2F200073878C828BC
:1047300003D187F800A000F003FAD8F80000C00702
:104740007FF42AAFD8F8000080073FF525AF00209E
:10475000002100F0A9FB40F2BE10C2F2000080F878
:1047600000A0C820FDF706F916E700BF00BF00BF94
:104770006666666666660A40000000000000303F1C
:1047800020205233373A20257320202020000000BB
:1047900020205233383A20257320202020000000AA
:1047A0002020504F543A2025732020202000000064
:1047B0002020464C4153483A253032582530325853
:1047C0002530325825303258000000002020523366
:1047D000373A20252E326656202000002020523302
:1047E000383A20252E326656202000002020504FD7
:1047F000543A20252E326656202000002020464CB8
:104800004153483A4E2F41202020202020202000D4
:1048100040F2BD1040F21041C2F20000C4F60001A7
:1048200003780A68022B0CD0012B14D1D2071ED1B9
:1048300040F20801C2F2000101220A700221017057
:104840007047D20706D00A68920744BF0A685FEA39
:1048500042723CD47047D20706D00A68920744BF20
:104860000A685FEA427223D40121017070470A6826
:10487000920707D440F20802C2F20002022111702E
:10488000017070470A68520705D440F20801C2F26D
:1048900000010322D1E74FF60042CFF6FF7289589C
:1048A000C9070DD140F20801C2F200010422C4E799
:1048B0004FF60042CFF6FF728958C907D4D00EE0F8
:1048C00040F20801C2F20001FF220A7007E04FF631
:1048D0000042CFF6FF728958C90708BF7047002110
:1048E00001707047F0B540F2080EC2F2000E9EF85B
:1048F0000000FF2808BFF0BD40F618414FF61043F6
:104900004FF60042C4F600010128CFF6FF73CFF640
:10491000FF7240D14FF48070C8500420086000BF7F
:1049200000BF4FF4806400BF0861CC50086000BF36
:1049300000BF4FF4805400BF0861CC50086000BF36
:1049400000BF4FF4804400BF0861CC50086000BF36
:1049500000BF4FF4007400BF08618C50086000BFB6
:1049600000BF4FF4006400BF08618C50086000BFB6
:1049700000BF4FF4005400BF08618C50086000BFB6
:1049800000BF4FF4004400BF08618C50086000BFB6
:1049900000BF00BF08619EF80000022840D14FF41C
:1049A0000070C8500420086000BF00BF4FF40064CE
:1049B00000BF0861CC50086000BF00BF4FF4005436
:1049C00000BF0861CC50086000BF00BF4FF4004436
:1049D00000BF0861CC50086000BF00BF4FF4807476
:1049E00000BF08618C50086000BF00BF4FF48064B6
:1049F00000BF08618C50086000BF00BF4FF48054B6
:104A000000BF08618C50086000BF00BF4FF48044B5
:104A100000BF08618C50086000BF00BF00BF086184
:104A20009EF8000040F2B81C0328C2F2000C3BD1F3
:104A30004FF400740420CC50086000BF00BF4FF456
:104A4000006500BF0861CD50086000BF00BF4FF493
:104A5000005600BF0861CE50086000BF00BF4FF491
:104A6000004700BF0861CF50086000BF00BF00BF13
:104A70000861CC50086000BF00BF00BF0861CD5086
:104A8000086000BF00BF00BF0861CE50086000BFD3
:104A900000BF00BF0861CF50086000BF00BF00BF6B
:104AA000086101208CF800009EF80000042843D122
:104AB0004FF4807088500420086000BF00BF4FF49E
:104AC000806300BF08618B50086000BF00BF4FF4D7
:104AD000805300BF08618B50086000BF00BF4FF4D7
:104AE000804300BF08618B50086000BF00BF4FF4D7
:104AF000007300BF08618B50086000BF00BF4FF417
:104B0000006300BF08618B50086000BF00BF4FF416
:104B1000005300BF08618B50086000BF00BF4FF416
:104B2000004300BF08618B50086000BF00BF00BF9A
:104B3000086100208CF80000FF208EF80000F0BD16
:104B4000B0B54FF6FF70FCF765FA40F20C04C2F204
:104B5000000400202146FBF7D9FF04F114011820BE
:104B6000FBF7D4FF04F128013020FBF7CFFF04F15D
:104B70003C014820FBF7CAFF04F150016020FBF71D
:104B8000C5FF4FF47840FCF745FA04F16401782042
:104B9000FBF7BCFF4FF6FF70FCF73CFA04F178011D
:104BA0009020FBF7B3FF04F18C01A820FBF7AEFFC8
:104BB00004F1A005C0202946FBF7A8FF4FF4FC60D4
:104BC000FCF728FAC0202946FBF7A0FF1F20FCF7BE
:104BD00021FA04F1B401D820BDE8B040FBF796BF3C
:104BE00070B540F22845C4F6000555F8101C04467F
:104BF00041F0800145F8101C55F8101CA5F1100675
:104C000041F0400145F8101C296841F080012960FD
:104C1000296841F0400028605E2008212A68013997
:104C200042F040022A6042B2B2F1FF3F3246C8BFB2
:104C30002A461368400043F08003136055F8102C97
:104C40000B0642F0400245F8102CE7D1286840F0EE
:104C500040002860FBF752FE082000BF2968013899
:104C600041F04001296061B2B1F1FF3F3146C8BF58
:104C700029460A68640042F080020A6055F8101C58
:104C8000020641F0400145F8101CE7D1286840F0C9
:104C900040002860FBF732FE286840F040002860A2
:104CA000286840F08000286055F8100C40F0400063
:104CB00045F8100C55F8100C40F0800045F8100C29
:104CC00070BD000070B586B040F22845C4F60005FE
:104CD00055F8101C044641F0800145F8101C55F8A9
:104CE000101CA5F1100641F0400145F8101C296880
:104CF00041F080012960296841F040002860A0202F
:104D0000082100BF2A68013942F040022A6042B2FD
:104D1000B2F1FF3F3246C8BF2A461368400043F055
:104D20008003136055F8102C0B0642F0400245F842
:104D3000102CE7D1286840F040002860FBF7DEFD2A
:104D4000082000BF2968013841F04001296061B2A4
:104D5000B1F1FF3F3146C8BF29460A68640042F0FE
:104D600080020A6055F8101C020641F0400145F827
:104D7000101CE7D1286840F040002860FBF7BEFD1A
:104D800055F8100C082140F0800045F8100C55F83B
:104D9000100C40F0400045F8100C286840F08000EE
:104DA0002860286840F040002860A1202A68013966
:104DB00042F040022A6042B2B2F1FF3F3246C8BF21
:104DC0002A461368400043F08003136055F8102C06
:104DD0000B0642F0400245F8102CE7D128682C461B
:104DE00040F0400044F82809FBF788FD80200026A9
:104DF00000900120059604900220039602906946D7
:104E000020460196FCF75CFA082000BF29680138AB
:104E100041F04001296055F8101C720041F040013A
:104E200045F8101C55F8181C0306C9B242EAD11601
:104E3000ECD12868694640F0400028600020CDE9A8
:104E40000400802000900120019003900220029035
:104E5000A5F12800FCF734FA55F8100C40F080005A
:104E600045F8100C55F8100C40F0400045F8100CB7
:104E7000286840F040002860286840F04000286022
:104E8000286840F08000286055F8100C40F0400081
:104E900045F8100C55F8100C40F08001F0B245F8C0
:104EA000101C06B070BD0000F0B581B040F228467D
:104EB000C4F6000656F8102C0C4642F0800246F864
:104EC000102C56F8102C054642F0400246F8102CE3
:104ED0003268A6F1100742F080013160316841F07C
:104EE00040003060A02008213268013942F04002C1
:104EF000326042B2B2F1FF3F3A46C8BF3246136851
:104F0000400043F08003136056F8102C0B0642F06B
:104F1000400246F8102CE7D1306840F04000306085
:104F2000FBF7ECFC082000BF3168013841F040017C
:104F3000316069B2B1F1FF3F3946C8BF31460A68F6
:104F40006D0042F080020A6056F8101C020641F023
:104F5000400146F8101CE7D1306840F04000306056
:104F6000FBF7CCFC082000BF3168013841F040015C
:104F7000316061B2B1F1FF3F3946C8BF31460A68BE
:104F8000640042F080020A6056F8101C020641F0EC
:104F9000400146F8101CE7D1306840F04000306016
:104FA000FBF7ACFC306840F040003060306840F007
:104FB0008000306056F8100C40F0400046F8100CAD
:104FC00056F8100C40F0800046F8100C01B0F0BD0F
:104FD0000FB4084B10B504A902AA039800F0DEF83C
:104FE000044602A9002000F070FC204610BC5DF8C9
:104FF00014FB0000CB58000802E008C8121F08C1CB
:10500000002AFAD170477047002001E001C1121F49
:10501000002AFBD1704700002DE9FF5F82B000211C
:10502000DDE90430020DDDF840B0034318D044F64A
:105030001050A2F2FF3242431514119801281FD0DC
:10504000A5EB0B00401C5FEA000A4FF000064E4F34
:10505000DFF83891B046504615D5CAF1000413E088
:10506000119801244AA3012801D16FEA0B0102988B
:10507000119AC0E90031C0E9024206B0BDE8F09FD4
:10508000CBF10000DFE704460021404A491842EB1B
:105090000450CDE9001012E0E00707D032463B464D
:1050A00040464946FBF7B4F88046894632463B46BF
:1050B00010461946FBF7ACF806460F466410002C64
:1050C000EAD1DDE90401DDE90023BAF1000F06DAD7
:1050D000FBF79EF842464B46FBF79AF805E0FBF7D4
:1050E00061FA42464B46FBF75DFA04460E46002243
:1050F000284BFBF7DFFA03D84FF0FF30014607E0FB
:105100000022254B20463146FBF7A5F9FBF7B9FAFB
:10511000102409E0002C0ADB0A220023FBF70DF91A
:10512000039B30321A55641E50EA0102F2D1641C0E
:10513000039AC4F111031444119A012A03D00122E5
:1051400008430DD10AE0084304D000204FF0110BB2
:10515000119072E7A3EB0B056D1E0DE05B4504DDBE
:105160004FF0000205F1010504E003DA4FF0000200
:10517000A5F10105002AECD002981199C0E902318D
:10518000C0E9004579E70000000014400000F03F4E
:10519000300000000000F0430000E03F2DE9FF4F29
:1051A00095B09B468946064600250FE2252877D113
:1051B00000242746F84A0121059400E0044316F82C
:1051C000013F203B01FA03F01042F7D130782A2842
:1051D00011D06FF02F033078A0F13002092A16D8D1
:1051E000059A44F0020402EB820203EB42021044EF
:1051F000761C0590EFE759F8042B0592002A03DA94
:10520000504244F40054059044F00204761C307877
:105210002E2816D116F8010F44F004042A280DD0C8
:105220006FF02F023078A0F13003092B09D807EB7B
:10523000870302EB4303C718761CF3E759F8047B96
:10524000761C30786C280FD006DC4C2817D06828E4
:105250000DD06A2814D104E0742810D07A280FD118
:105260000DE044F400140AE044F4801401E044F436
:1052700040147278824202D104F58014761C761CA8
:10528000307866280BD013DC582877D009DC00284A
:1052900075D04528F6D04628F4D047281AD19DE18C
:1052A00018E0632835D0642879D0652812D195E1BB
:1052B000702873D008DC6728F1D069286FD06E2879
:1052C0000DD06F2806D1B5E073282CD0752875D085
:1052D000782874D05A46179990476D1C75E1C4F32D
:1052E0000250022809D003280DD0D9F80010042854
:1052F0000DD00D6009F1040967E1D9F80010EA1733
:10530000C1E90052F6E7D9F800100D80F2E70D7000
:10531000F0E719F8041B8DF8001000208DF801004B
:10532000EA46012003E059F804AB4FF0FF30610773
:105330004FF0000102D40DE008F101018846B942A6
:105340000FDA8045F8DB1AF808100029F4D108E0DC
:1053500008F1010188468142FADB1AF80810002999
:10536000F6D105985B46A0EB080721463846179A08
:1053700000F094FA284400EB080507E04DE029E12D
:105380000DE01AF8010B5A4617999047B8F1010839
:10539000F7D25B4621463846179A13E142E00A22CB
:1053A0000092C4F302524FF0000A022A08D059F8C2
:1053B00004CB032A4FEAEC710AD00DE029E02AE081
:1053C00009F1070121F00702F2E802C1914609E064
:1053D0000FFA8CFC4FEAEC71042A03D14FFA8CFCD3
:1053E0004FEAEC71002907DA0A460021DCF1000CD3
:1053F00061EB02012D2202E0220504D52B228DF85B
:105400000420012203E0E20701D02022F7E79046C2
:1054100059E00A2102E010220DE010214FF0000AAD
:1054200000910BE010224FF0000A44F0040408271A
:10543000009203E008224FF0000A0092C4F30252E7
:10544000022A05D059F804CB0021032A08D009E02C
:1054500009F1070121F00702F2E802C1914605E0D7
:105460001FFA8CFC042A01D10CF0FF0C4FF000084D
:10547000220728D5702806D0009B83F0100353EA3A
:105480000A0305D00EE040228DF80420012208E036
:105490005CEA010206D030228DF804208DF8050068
:1054A00002229046009B83F0080353EA0A030AD1C4
:1054B0005CEA010201D1620705D530228DF8042093
:1054C0004FF001087F1E582804D034A003900EA886
:1054D00002900DE036A0F9E753466046009AFAF7CD
:1054E0002CFF84460398825C0298401E0290027052
:1054F0005CEA0100F0D1029806A9081A00F1200A1E
:10550000600702D524F4803400E00127574502DD0E
:10551000A7EB0A0000E0002000EB0A0100900598CC
:105520004144401A0590E00306D45B462146179A91
:10553000059800F0B3F90544002706E001A85A4693
:10554000C05D179990476D1C7F1C4745F6DBE00353
:105550000CD55B462146179A059800F09FF9054443
:1055600004E030205A46179990476D1C0099481E58
:1055700000900029F5DC08E0029802995A4600786C
:10558000491C0291179990476D1CBAF10001AAF1CC
:10559000010AF1DC65E100000928010030313233F5
:1055A000343536373839616263646566000000005F
:1055B0003031323334353637383941424344454649
:1055C0000000000000F058F90544761C30780028EF
:1055D0007FF4ECAD19B02846BDE8F08F620700D427
:1055E000062709F1070222F0070CFCE80223E14636
:1055F00003F000485FEA080C02D00FF2702C0DE0B7
:105600005FEA045C02D50FF2682C07E05FEAC47C15
:1056100002D00FF2602C01E0AFF2700C4FF0FF38B7
:1056200023F00043CDF850C065280CD006DC452897
:1056300009D046281DD047283DD13DE0662818D026
:1056400067287ED138E00021112F01DB112000E016
:10565000781CCDE9000106A90EA8FFF7DDFCDDE905
:105660000F010E9A03910021009207F1010A0491A3
:105670004DE04FF000400097CDE9011006A90EA8BB
:10568000FFF7CAFCDDE90F0203920E9B119900227D
:10569000DDF80CA00093049211B9791C00EB010A0B
:1056A000B7EB0A0004D4C0F1FF3007F1010A0490FF
:1056B000AAEB0700019044E0012F00DA0127002146
:1056C000112F01DD112000E03846CDE9000106A9C7
:1056D0000EA8FFF7A1FCDDE90F010E9A039100214E
:1056E00004910092BA4621070CD40399514500DA7F
:1056F0008A46BAF1010F05DD009AAAF10101515C59
:10570000302908D0B84202DA10F1040F06DA01217C
:10571000CDE9011015E0AAF10101E9E7002805DC57
:10572000049901440491AAEB000102E0411C514597
:1057300000DD8A460499401A401C01904FF0004059
:105740000290200704D40198504501DBCDF8048075
:1057500000208DF84F0002980DF14F07B0F1004F77
:1057600025D02B200E9002984FF0020800280CDA6A
:10577000404202902D200E9007E00A210298FAF78D
:10578000C6FD3031029007F8011DB8F10001A8F103
:105790000108F2DC02980028EFD1791E0E980870FB
:1057A000307800F0200040F0450007F8020D12A804
:1057B000C01B00F107081498007800B1012000EB2D
:1057C0000A01019801EBE07105984144401A401E1E
:1057D0000590E00306D45B462146179A059800F031
:1057E0005DF805441498007818B15A461799904707
:1057F0006D1CE00324D55B462146179A059800F0FE
:105800004DF805441CE00498002807DBDDE903019E
:10581000884203DD0098405C179901E01799302019
:105820005A469047049805F10105401C04900198E0
:10583000401E019004D12E205A46179990476D1CA6
:10584000BAF10001AAF1010ADDDC05E017F8010B4D
:105850005A46179990476D1CB8F10001A8F101084C
:10586000F4DC5B462146179A0598ABE62D00000054
:105870002B000000200000002DE9F0410446002527
:105880001E461746880404D405E039462020B04758
:105890006D1C641EF9D52846BDE8F0812DE9F04164
:1058A000044600251E469046C80301D5302700E077
:1058B0002027880404D505E041463846B0476D1CD2
:1058C000641EF9D52846BDE8F0810A68531C0B60B8
:1058D0001070704700000000000000000102030487
:1058E0000607080900000000010203040000000090
:1058F00000000000000000000000000000000000A8
:105900000000000000000000000000000000000097
:105910000000000000000000000000000000800106
:10592000800180018001800180018001800180016F
:105930008001800180018001000000008001800161
:105940000000000000000000000000000000000057
:10595000CC00CC00CC00CC00CC00CC00000000007F
:105960000000000000000000000000000000000037
:105970000000000000000000000000000000000027
:105980000000000000000000600C600C600C30069D
:105990003006FE1FFE1F300638071803FE1FFE1FCD
:1059A000180318038C018C018C010000000080009A
:1059B000E003F80F9C0E8C1C8C188C009800F801EA
:1059C000E007800E801C8C188C189C18B80CF00F07
:1059D000E0038000800000000000000000000000E4
:1059E00000000E181B0C110C1106110611031103F7
:1059F0009B018E01C038C06C604460443044304428
:105A00001844186C0C380000000000000000E00191
:105A1000F0033807180618063003F001F000F8000C
:105A20009C310E33061E061C061C063FFC73F0213B
:105A30000000000000000000000000000000000066
:105A40000C000C000C000C000C000C00000000000E
:105A50000000000000000000000000000000000046
:105A60000000000000000000000000000000000234
:105A700000038001C000C000600060003000300002
:105A80003000300030003000300030006000600036
:105A9000C000C000800100030002000000002000E0
:105AA0006000C000800180010003000300060006C2
:105AB00000060006000600060006000600030003BC
:105AC00080018001C0006000200000000000000094
:105AD0000000000000000000C000C000D806F80769
